:020000040800F2
:1000000000C000202D120008190D0008210D000865
:10001000290D0008310D0008390D0008000000000E
:10002000000000000000000000000000410D00087A
:100030004D0D000800000000590D0008650D000876
:100040007512000875120008751200087512000874
:100050007512000875120008751200087512000864
:100060007512000875120008751200087512000854
:100070007512000875120008751200087512000844
:100080007512000875120008751200087512000834
:10009000751200087512000875120008710D00082D
:1000A0007512000875120008751200087512000814
:1000B0008D0D0008751200087512000875120008F1
:1000C00075120008751200087512000875120008F4
:1000D00075120008751200087512000875120008E4
:1000E000A10D0008751200087512000875120008AD
:1000F00075120008751200087512000875120008C4
:1001000075120008751200087512000875120008B3
:1001100075120008751200087512000875120008A3
:100120007512000875120008751200087512000893
:1001300000000000000000000000000000000000BF
:1001400000000000000000000000000000000000AF
:10015000000000000000000000000000000000009F
:10016000000000000000000000000000000000008F
:10017000000000000000000000000000000000007F
:10018000000000000000000000000000000000006F
:10019000000000000000000000000000000000005F
:1001A000000000000000000000000000000000004F
:1001B000000000000000000000000000000000003F
:1001C000000000000000000000000000000000002F
:1001D000000000000000000000000000000000001F
:0401E0005FF8E0F1F3
:1001E40010B5054C237833B9044B13B10448AFF36D
:1001F40000800123237010BD1000002000000000C7
:10020400EC46000808B5034B1BB103490348AFF3A0
:10021400008008BD0000000014000020EC46000827
:1002240080F0004002E000BF81F0004142001FBFA7
:100234005FEA410392EA030F7FEA226C7FEA236CB0
:100244006AD04FEA1262D2EB1363C1BFD2184140A5
:1002540048404140B8BF5B42192B88BF704710F03B
:10026400004F40F4000020F07F4018BF404211F0DE
:10027400004F41F4000121F07F4118BF494292EA46
:10028400030F3FD0A2F1010241FA03FC10EB0C0072
:10029400C3F1200301FA03F100F0004302D54942FF
:1002A40060EB4000B0F5000F13D3B0F1807F06D3AC
:1002B40040084FEA310102F10102FE2A51D2B1F1A4
:1002C400004F40EBC25008BF20F0010040EA030099
:1002D4007047490040EB0000013A28BFB0F5000F19
:1002E400EDD2B0FA80FCACF1080CB2EB0C0200FACF
:1002F4000CF0AABF00EBC25052421843BCBFD0401E
:100304001843704792F0000F81F4000106BF80F497
:1003140000000132013BB5E74FEA41037FEA226C5A
:1003240018BF7FEA236C21D092EA030F04D092F025
:10033400000F08BF0846704790EA010F1CBF002059
:10034400704712F07F4F04D1400028BF40F00040B6
:10035400704712F100723CBF00F50000704700F0D6
:10036400004343F0FE4040F4000070477FEA2262FD
:1003740016BF08467FEA23630146420206BF5FEACE
:10038400412390EA010F40F4800070474FF00003CE
:1003940004E000BF10F0004348BF40425FEA000C95
:1003A40008BF704743F0964301464FF000001CE03D
:1003B40050EA010208BF70474FF000030AE000BF93
:1003C40050EA010208BF704711F0004302D54042D1
:1003D40061EB41015FEA010C02BF84460146002043
:1003E40043F0B64308BFA3F18053A3F50003BCFA5E
:1003F4008CF2083AA3EBC25310DB01FA02FC63440B
:1004040000FA02FCC2F12002BCF1004F20FA02F211
:1004140043EB020008BF20F00100704702F1200204
:1004240001FA02FCC2F1200250EA4C0021FA02F265
:1004340043EB020008BF20EADC7070474FF0FF0C6A
:100444001CEAD0521EBF1CEAD15392EA0C0F93EA65
:100454000C0F6FD01A4480EA010C400218BF5FEA07
:1004640041211ED04FF0006343EA501043EA51117A
:10047400A0FB01310CF00040B1F5000F3EBF490074
:1004840041EAD3715B0040EA010062F17F02FD2A78
:100494001DD8B3F1004F40EBC25008BF20F001005B
:1004A400704790F0000F0CF0004C08BF49024CEA72
:1004B400502040EA51207F3AC2BFD2F1FF0340EA04
:1004C400C250704740F400004FF00003013A5DDC75
:1004D40012F1190FDCBF00F000407047C2F10002B6
:1004E400410021FA02F1C2F1200200FA02FC5FEAA3
:1004F400310040F1000053EA4C0308BF20EADC70ED
:10050400704792F0000F00F0004C02BF400010F45E
:10051400000F013AF9D040EA0C0093F0000F01F00B
:10052400004C02BF490011F4000F013BF9D041EA2D
:100534000C018FE70CEAD15392EA0C0F18BF93EA2F
:100544000C0F0AD030F0004C18BF31F0004CD8D159
:1005540080EA010000F00040704790F0000F17BFE0
:1005640090F0004F084691F0000F91F0004F14D026
:1005740092EA0C0F01D142020FD193EA0C0F03D17E
:100584004B0218BF084608D180EA010000F0004081
:1005940040F0FE4040F40000704740F0FE4040F45C
:1005A400400070474FF0FF0C1CEAD0521EBF1CEAFB
:1005B400D15392EA0C0F93EA0C0F69D0A2EB030219
:1005C40080EA010C49024FEA402037D04FF08053B3
:1005D40043EA111143EA10130CF000408B4238BF78
:1005E4005B0042F17D024FF4000C8B4224BF5B1A86
:1005F40040EA0C00B3EB510F24BFA3EB510340EAD4
:100604005C00B3EB910F24BFA3EB910340EA9C0081
:10061400B3EBD10F24BFA3EBD10340EADC001B01F1
:1006240018BF5FEA1C1CE0D1FD2A3FF650AF8B4295
:1006340040EBC25008BF20F0010070470CF0004CA2
:100644004CEA50207F32C2BFD2F1FF0340EAC250CD
:10065400704740F400004FF00003013A37E792F08E
:10066400000F00F0004C02BF400010F4000F013AEC
:10067400F9D040EA0C0093F0000F01F0004C02BFE7
:10068400490011F4000F013BF9D041EA0C0195E750
:100694000CEAD15392EA0C0F08D142027FF47DAFE9
:1006A40093EA0C0F7FF470AF084676E793EA0C0FD9
:1006B40004D14B023FF44CAF08466EE730F0004CD7
:1006C40018BF31F0004CCAD130F000427FF45CAF67
:1006D40031F000437FF43CAF5FE700BF80B588B0E2
:1006E40000AF07F1100300221A605A609A60DA60C2
:1006F400424B9B69414A43F0200393613F4B9B6902
:1007040003F02003FB60FB683C4B9B693B4A43F0CE
:1007140004039361394B9B6903F00403BB60BB681A
:10072400364B9B69354A43F008039361334B9B690D
:1007340003F008037B607B68304B9B692F4A43F0CE
:10074400100393612D4B9B6903F010033B603B68DE
:10075400002280212A4801F0A8F800224EF2070165
:10076400284801F0A2F880233B6101237B61002328
:10077400BB610223FB6107F110031946204800F016
:10078400E9FE4EF207033B6101237B610023BB6159
:100794000223FB6107F1100319461A4800F0DAFE40
:1007A4004FF4E0533B61184B7B610023BB6107F1BD
:1007B40010031946154800F0CDFEE0233B61124BAF
:1007C4007B610023BB6107F1100319460D4800F05B
:1007D400C1FE00220021172000F085FE172000F042
:1007E4009EFE00220021282000F07DFE282000F03B
:1007F40096FE00BF2037BD4680BD00BF00100240FA
:1008040000080140000C01400000311000100140BC
:1008140080B500AF00F02EFD00F08CF8FFF75EFF0E
:1008240000F0D2FA00F0B8FB00F06AFB00213A486D
:1008340001F062FD0421384801F05EFD08213648CC
:1008440001F05AFD0021354801F056FD04213348DA
:1008540001F052FD0821314801F04EFD304801F00D
:100864009BFC2D4B1B6800225A632B4B1B680022F8
:100874009A63294B1B680022DA63284B1B68002209
:100884005A63264B1B6800229A63244B1B68002280
:10089400DA6301224FF40051224801F006F80122E4
:1008A4004FF480411F4801F000F801224FF4004149
:1008B4001C4800F0FAFF012280211B4800F0F5FFDC
:1008C40001220221174800F0F0FF012201211548FE
:1008D40000F0EBFF154802F0B3FC154802F0B0FC41
:1008E400124B03F50053002283F86820104B03F5E4
:1008F4000053002283F8682000210C4802F062FDB6
:1009040000210B4802F05EFD084802F06BFD084828
:1009140002F068FD00BFF7E72C410020BC41002035
:1009240074410020000C0140000801402C0000200C
:100934009C20002080B590B000AF07F11803282256
:100944000021184603F0A4FE3B1D00221A605A60E1
:100954009A60DA601A610223BB610123BB6210232F
:10096400FB6200237B6307F11803184600F0E6FFDF
:100974000346002B14BF01230023DBB2002B01D05C
:1009840000F02AF90F237B600023BB600023FB6087
:100994004FF480633B6100237B613B1D00211846BB
:1009A40001F04EFA0346002B14BF01230023DBB2EF
:1009B400002B01D000F010F900BF4037BD4680BDC8
:1009C40080B584B000AF0346FB80FB88B3F5805F3D
:1009D40007D0FB88B3F5006F03D0FB88B3F5806FB5
:1009E4000ED11C4802F0B5FC1A4B03F50053B3F8C2
:1009F4006C3001339AB2174B03F50053A3F86C2003
:100A0400FB88802B05D0FB88202B02D0FB88402B51
:100A14000ED1114802F09DFC0F4B03F50053B3F8BF
:100A24006C3001339AB20C4B03F50053A3F86C20DD
:100A34000023FB6002E0FB680133FB60074B1B886B
:100A44001A46FB689342F6DB00BF00BF1037BD4671
:100A540080BD00BF2C0000209C200020000000204E
:100A640080B584B000AF78607B681B68B3F1804FB9
:100A740040F08C80474B1B88474AA2FB0312920923
:100A8400C82101FB02F29B1A9BB2002B78D10421EE
:100A9400424800F022FF424B03F50053B3F86C20A8
:100AA400404B1A80404B03F50053B3F86C203F4B86
:100AB4001A803C4B1B881846FFF76CFC03463C49E4
:100AC4001846FFF76FFD0346FB60384B1B8818463A
:100AD400FFF760FC034636491846FFF763FD0346FB
:100AE400BB60FB6819461846FFF7A0FB0346314973
:100AF4001846FFF7A3FC03461A462F4B1A60BB683F
:100B040019461846FFF792FB03462A491846FFF791
:100B140095FC03461A46294B1A602949F868FFF7E1
:100B24008DFC03461A46274B1A602549B868FFF71F
:100B340085FC03461A46244B1A601F4B1B68234945
:100B44001846FFF77BFC03461A46214B1A601B4BE1
:100B54001B681E491846FFF771FC03461A461D4BD5
:100B64001A600F4B03F500530022A3F86C200E4BC0
:100B740003F500530022A3F86C20064B00221A80D0
:100B8400044B1B8801339AB2024B1A8000BF103702
:100B9400BD4680BD204100201F85EB51000C014063
:100BA4002C0000200C4100209C2000200E4100203D
:100BB4000000B442DB0F49401041002014410020E2
:100BC40000007042184100201C4100207B14AE3DFF
:100BD400244100202841002080B400AF72B600BF39
:100BE40000BFFDE780B58EB00EAF4FF480630D9368
:100BF400244B0C934FF400630B93224B0A934FF452
:100C0400805309931F4B08934FF4004307931E4BE3
:100C140006934FF4804305931B4B04934FF4005306
:100C24000393194B02930823019304230093002395
:100C3400164A1749174802F08FFA40230D93124BB6
:100C44000C9320230B93104B0A93802309930E4B90
:100C54000893012307930C4B0693022305930A4B35
:100C64000493802303930C4B0293042301930823DE
:100C740000930023054A0949094802F06DFA00BFB0
:100C8400BD4680BD00100140000C014074410020AD
:100C94002C4100202C00002000080140BC41002011
:100CA4009C20002080B500AFFFF79CFF80BD0000B2
:100CB40080B485B000AF154B9B69144A43F001031F
:100CC4009361124B9B6903F00103BB60BB680F4B3C
:100CD400DB690E4A43F08053D3610C4BDB6903F0AC
:100CE40080537B607B680A4B5B68FB60FB6823F086
:100CF400E063FB60FB6843F00073FB60044AFB683D
:100D0400536000BF1437BD4680BC704700100240DA
:100D14000000014080B400AF00BFFDE780B400AF25
:100D240000BFFDE780B400AF00BFFDE780B400AFB3
:100D340000BFFDE780B400AF00BFFDE780B400AFA3
:100D440000BFBD4680BC704780B400AF00BFBD4645
:100D540080BC704780B400AF00BFBD4680BC704704
:100D640080B500AF00F0CCFA00BF80BD80B500AF05
:100D7400202000F0CBFD402000F0C8FD802000F0D2
:100D8400C5FD00BF80BD000080B500AF024801F082
:100D94006DFB00BF80BD00BF7441002080B500AF73
:100DA4004FF4806000F0B2FD4FF4006000F0AEFD3F
:100DB4004FF4805000F0AAFD00BF80BD80B400AFA6
:100DC40000BFBD4680BC704780B592B000AF07F14C
:100DD400400300221A605A6007F1240300221A60BB
:100DE4005A609A60DA601A615A619A613B1D202246
:100DF4000021184603F04CFC3F4B404A1A603E4B1E
:100E040007225A603C4B00229A603B4B40F2E73287
:100E1400DA60394B00221A61374B00225A61364B93
:100E240000229A61344801F017FA0346002B01D0DE
:100E3400FFF7D2FE00233B6400237B6407F14003E9
:100E440019462D4802F09CF80346002B01D0FFF709
:100E5400C3FE60237B620023BB620023FB6200238A
:100E64003B6300237B630023BB630023FB6307F125
:100E7400240300221946204801F0E8FB0346002B16
:100E840001D0FFF7A9FE07F12403042219461A48EA
:100E940001F0DCFB0346002B01D0FFF79DFE07F1B8
:100EA400240308221946144801F0D0FB0346002B02
:100EB40001D0FFF791FE00237B600023BB60002379
:100EC400FB6000233B6100237B614FF40053BB6153
:100ED40000233B623B1D1946074802F0BDF8034658
:100EE400002B01D0FFF778FE034800F047F900BF5C
:100EF4004837BD4680BD00BF2C410020002C014076
:100F040080B586B000AF07F1080300221A605A606A
:100F14009A60DA603B4600221A605A601D4B4FF01B
:100F240080421A601B4B27225A601A4B00229A6097
:100F3400184B40F2E732DA60164B00221A61154B67
:100F440000229A61134801F0D7F80346002B01D020
:100F5400FFF742FE4FF48053BB6007F108031946C4
:100F64000C4801F035FC0346002B01D0FFF734FE9A
:100F740000233B6000237B603B461946054801F093
:100F8400FFFF0346002B01D0FFF726FE00BF1837F2
:100F9400BD4680BD7441002080B592B000AF07F11A
:100FA400400300221A605A6007F1240300221A60E9
:100FB4005A609A60DA601A615A619A613B1D202274
:100FC4000021184603F064FB3F4B404A1A603E4B35
:100FD40007225A603C4B00229A603B4B40F2E732B6
:100FE400DA60394B00221A61374B00225A61364BC2
:100FF40000229A61344801F02FF90346002B01D0F6
:10100400FFF7EAFD00233B6400237B6407F1400300
:1010140019462D4801F0B4FF0346002B01D0FFF719
:10102400DBFD60237B620023BB620023FB620023A1
:101034003B6300237B630023BB630023FB6307F153
:10104400240300221946204801F000FB0346002B2C
:1010540001D0FFF7C1FD07F12403042219461A4801
:1010640001F0F4FA0346002B01D0FFF7B5FD07F1B8
:10107400240308221946144801F0E8FA0346002B19
:1010840001D0FFF7A9FD00237B600023BB60002390
:10109400FB6000233B6100237B614FF40053BB6181
:1010A40000233B623B1D1946074801F0D5FF034668
:1010B400002B01D0FFF790FD034800F05FF800BF5C
:1010C4004837BD4680BD00BFBC410020003401400C
:1010D40080B485B000AF78607B681B68124A934285
:1010E4000CD1124B9B69114A43F4006393610F4B7B
:1010F4009B6903F40063FB60FB6810E07B681B687A
:101104000B4A93420BD1094B9B69084A43F40053A1
:101114009361064B9B6903F40053BB60BB6800BF3B
:101124001437BD4680BC7047002C014000100240BB
:101134000034014080B584B000AF78607B681B68E0
:10114400B3F1804F13D10C4BDB690B4A43F001031D
:10115400D361094BDB6903F00103FB60FB680022E8
:1011640000211C2000F0BFF91C2000F0D8F900BFBA
:101174001037BD4680BD00BF0010024080B588B066
:1011840000AF786007F1100300221A605A609A6079
:10119400DA607B681B681F4A934219D11E4B9B6916
:1011A4001D4A43F0040393611B4B9B6903F0040342
:1011B400FB60FB684FF4E0633B6102237B61022325
:1011C400FB6107F110031946144800F0C3F91DE050
:1011D4007B681B68124A934218D10F4B9B690E4AD5
:1011E40043F0100393610C4B9B6903F01003BB6045
:1011F400BB684FF4E0733B6102237B610223FB6114
:1012040007F110031946074800F0A4F900BF20377E
:10121400BD4680BD002C0140001002400008014082
:101224000034014000100140FFF7C8FD0B480C4991
:101234000C4A002302E0D458C4500433C4188C422E
:10124400F9D3094A094C002301E013600432A24295
:10125400FBD303F025FAFFF7DBFA70470000002008
:10126400100000203447000810000020084200202D
:10127400FEE7000080B500AF084B1B68074A43F047
:1012840010031360032000F023F90F2000F008F886
:10129400FFF70EFD0023184680BD00BF002002406A
:1012A40080B582B000AF7860124B1A68124B1B787D
:1012B40019464FF47A73B3FBF1F3B2FBF3F3184618
:1012C40000F03BF90346002B01D001230EE07B68BC
:1012D4000F2B0AD8002279684FF0FF3000F003F991
:1012E400064A7B681360002300E001231846083790
:1012F400BD4680BD040000200C0000200800002032
:1013040080B400AF054B1B781A46054B1B68134489
:10131400034A136000BFBD4680BC70470C00002028
:101324000442002080B400AF024B1B681846BD463F
:1013340080BC70470442002080B485B000AF786060
:101344007B6803F00703FB600C4BDB68BB60BA6887
:101354004FF6FF031340BB60FB681A02BB681343DC
:1013640043F0BF6343F40033BB60044ABB68D360FB
:1013740000BF1437BD4680BC704700BF00ED00E0DD
:1013840080B400AF044BDB681B0A03F00703184664
:10139400BD4680BC704700BF00ED00E080B483B060
:1013A40000AF0346FB7197F90730002B0BDBFB7989
:1013B40003F01F02064997F907305B09012000FA80
:1013C40002F241F8232000BF0C37BD4680BC7047B1
:1013D40000E100E080B483B000AF03463960FB71E4
:1013E40097F90730002B0ADB3B68DAB20C4997F90E
:1013F40007301201D2B20B4483F800230AE03B68A1
:10140400DAB20849FB7903F00F03043B1201D2B2AC
:101414000B441A7600BF0C37BD4680BC704700BF32
:1014240000E100E000ED00E080B489B000AFF860B6
:10143400B9607A60FB6803F00703FB61FB69C3F1E1
:101444000703042B28BF0423BB61FB690433062B69
:1014540002D9FB69033B00E000237B614FF0FF32BC
:10146400BB6902FA03F3DA43BB681A407B699A400A
:101474004FF0FF317B6901FA03F3D9437B680B40DA
:10148400134318462437BD4680BC704780B582B0EC
:1014940000AF78607B68013BB3F1807F01D3012307
:1014A4000FE00A4A7B68013B53600F214FF0FF3085
:1014B400FFF790FF054B00229A60044B07221A6045
:1014C400002318460837BD4680BD00BF10E000E089
:1014D40080B582B000AF78607868FFF72DFF00BF59
:1014E4000837BD4680BD80B586B000AF0346B960FD
:1014F4007A60FB7300237B61FFF742FF78617A68AF
:10150400B9687869FFF790FF024697F90F301146E2
:101514001846FFF75FFF00BF1837BD4680BD80B592
:1015240082B000AF0346FB7197F907301846FFF706
:1015340035FF00BF0837BD4680BD80B582B000AF1F
:1015440078607868FFF7A2FF034618460837BD465F
:1015540080BD000080B48BB000AF78603960002398
:101564007B6200233B6279E101227B6A02FA03F386
:10157400FB613B681B68FA691340BB61BA69FB698C
:101584009A4240F068813B685B68964A93425ED019
:10159400944A934275D8944A934258D0924A9342BB
:1015A4006FD8924A934252D0904A934269D8904A53
:1015B40093424CD08E4A934263D88E4A934246D08B
:1015C4008C4A93425DD8122B2AD8122B59D801A2E7
:1015D40052F823F0531600082D1600083F16000891
:1015E4008116000887160008871600088716000869
:1015F4008716000887160008871600088716000853
:101604008716000887160008871600088716000842
:1016140087160008871600083516000849160008C2
:10162400754A934213D02CE03B68DB683B6229E0A7
:101634003B68DB6804333B6224E03B68DB680833C7
:101644003B621FE03B68DB680C333B621AE03B689B
:101654009B68002B02D104233B6213E03B689B6828
:10166400012B05D108233B627B68FA691A6109E002
:1016740008233B627B68FA695A6103E000233B62FA
:1016840000E000BFBB69FF2B01D87B6801E07B68E9
:1016940004337B61BB69FF2B02D87B6A9B0002E0A9
:1016A4007B6A083B9B003B617B691A680F213B699D
:1016B40001FA03F3DB431A40396A3B6901FA03F385
:1016C4001A437B691A603B685B6803F08053002B04
:1016D40000F0C180494B9B69484A43F00103936180
:1016E400464B9B6903F00103BB60BB68444A7B6AB9
:1016F4009B08023352F82330FB607B6A03F0030338
:101704009B000F2202FA03F3DB43FA681340FB60E9
:101714007B683C4A93421FD07B683B4A934219D072
:101724007B683A4A934213D07B68394A93420DD07E
:101734007B68384A934207D07B68374A934201D189
:1017440005230AE0062308E0042306E0032304E05B
:10175400022302E0012300E000237A6A02F003027C
:1017640092009340FA681343FB6025497B6A9B0807
:101774000233FA6841F823203B685B6803F4801362
:10178400002B06D0254B9A682449BB6913438B6010
:1017940006E0224B9A68BB69DB43204913408B6007
:1017A4003B685B6803F40013002B06D01B4BDA681C
:1017B4001A49BB691343CB6006E0184BDA68BB696E
:1017C400DB4316491340CB603B685B6803F400338A
:1017D400002B25D0114B5A681049BB6913434B6049
:1017E40025E000BF0000321000003110000022107C
:1017F400000021100000121000001110001002401F
:101804000000014000080140000C014000100140AC
:101814000014014000180140001C01400004014074
:10182400154B5A68BB69DB43134913404B603B6853
:101834005B6803F48033002B06D00F4B1A680E4903
:10184400BB6913430B6006E00B4B1A68BB69DB43AF
:10185400094913400B607B6A01337B623B681A6859
:101864007B6A22FA03F3002B7FF47EAE00BF00BF35
:101874002C37BD4680BC70470004014080B485B05D
:1018840000AF78600B467B807B689A687B88134046
:10189400002B02D00123FB7301E00023FB73FB7BCD
:1018A40018461437BD4680BC704780B483B000AF7F
:1018B40078600B467B8013467B707B78002B03D0CB
:1018C4007A887B681A6103E07B881A047B681A6152
:1018D40000BF0C37BD4680BC704780B485B000AFF4
:1018E40078600B467B807B68DB68FB607A88FB68EA
:1018F40013401A04FB68D9437B880B401A437B6866
:101904001A6100BF1437BD4680BC704780B582B0F1
:1019140000AF0346FB80084B5A69FB881340002B39
:1019240006D0054AFB885361FB881846FFF748F840
:1019340000BF0837BD4680BD0004014080B586B0B5
:1019440000AF78607B68002B01D1012372E27B68D1
:101954001B6803F00103002B00F08780924B5B6847
:1019640003F00C03042B0CD08F4B5B6803F00C03C7
:10197400082B12D18C4B5B6803F48033B3F5803FA2
:101984000BD1894B1B6803F40033002B6CD07B68AC
:101994005B68002B68D101234CE27B685B68B3F57C
:1019A400803F06D1804B1B687F4A43F48033136029
:1019B4002EE07B685B68002B0CD17B4B1B687A4A5A
:1019C40023F480331360784B1B68774A23F4802315
:1019D40013601DE07B685B68B3F5A02F0CD1724BDC
:1019E4001B68714A43F4802313606F4B1B686E4A73
:1019F40043F4803313600BE06B4B1B686A4A23F497
:101A040080331360684B1B68674A23F48023136098
:101A14007B685B68002B13D0FFF784FC386108E017
:101A2400FFF780FC02463B69D31A642B01D90323D8
:101A340000E25D4B1B6803F40033002BF0D014E08C
:101A4400FFF770FC386108E0FFF76CFC02463B6965
:101A5400D31A642B01D90323ECE1534B1B6803F421
:101A64000033002BF0D100E000BF7B681B6803F05B
:101A74000203002B63D04C4B5B6803F00C03002B78
:101A84000BD0494B5B6803F00C03082B1CD1464B6D
:101A94005B6803F48033002B16D1434B1B6803F0BF
:101AA4000203002B05D07B681B69012B01D00123A5
:101AB400C0E13D4B1B6823F0F8027B685B69DB00E7
:101AC400394913430B603AE07B681B69002B20D033
:101AD400364B01221A60FFF725FC386108E0FFF756
:101AE40021FC02463B69D31A022B01D90323A1E14D
:101AF4002D4B1B6803F00203002BF0D02A4B1B680C
:101B040023F0F8027B685B69DB00274913430B6011
:101B140015E0264B00221A60FFF704FC386108E048
:101B2400FFF700FC02463B69D31A022B01D90323B9
:101B340080E11D4B1B6803F00203002BF0D17B688E
:101B44001B6803F00803002B3AD07B689B69002BC9
:101B540019D0174B01221A60FFF7E4FB386108E043
:101B6400FFF7E0FB02463B69D31A022B01D903239A
:101B740060E10D4B5B6A03F00203002BF0D00120FF
:101B840000F09CFA1CE00A4B00221A60FFF7CAFB23
:101B940038610FE0FFF7C6FB02463B69D31A022BFC
:101BA40008D9032346E100BF00100240000042426E
:101BB40080044242924B5B6A03F00203002BE9D19A
:101BC4007B681B6803F00403002B00F0A68000234D
:101BD400FB758B4BDB6903F08053002B0DD1884BD5
:101BE400DB69874A43F08053D361854BDB6903F09B
:101BF4008053BB60BB680123FB75824B1B6803F4F5
:101C04008073002B18D17F4B1B687E4A43F480738A
:101C14001360FFF787FB386108E0FFF783FB024698
:101C24003B69D31A642B01D9032303E1754B1B6869
:101C340003F48073002BF0D07B68DB68012B06D1A2
:101C44006F4B1B6A6E4A43F0010313622DE07B68FD
:101C5400DB68002B0CD16A4B1B6A694A23F0010331
:101C64001362674B1B6A664A23F0040313621CE089
:101C74007B68DB68052B0CD1614B1B6A604A43F01F
:101C8400040313625E4B1B6A5D4A43F00103136253
:101C94000BE05B4B1B6A5A4A23F001031362584B57
:101CA4001B6A574A23F0040313627B68DB68002B2A
:101CB40015D0FFF737FB38610AE0FFF733FB024624
:101CC4003B69D31A41F28832934201D90323B1E02C
:101CD4004B4B1B6A03F00203002BEED014E0FFF71A
:101CE40021FB38610AE0FFF71DFB02463B69D31A6A
:101CF40041F28832934201D903239BE0404B1B6A93
:101D040003F00203002BEED1FB7D012B05D13C4BEC
:101D1400DB693B4A23F08053D3617B68DB69002B8A
:101D240000F08780364B5B6803F00C03082B61D00E
:101D34007B68DB69022B46D1334B00221A60FFF724
:101D4400F1FA386108E0FFF7EDFA02463B69D31A6D
:101D5400022B01D903236DE0294B1B6803F00073A8
:101D6400002BF0D17B681B6AB3F5803F08D1244B6C
:101D74005B6823F400327B689B68214913434B6002
:101D84001F4B5B6823F474127B68196A7B685B6A77
:101D94000B431B4913434B601B4B01221A60FFF793
:101DA400C1FA386108E0FFF7BDFA02463B69D31A6D
:101DB400022B01D903233DE0114B1B6803F0007390
:101DC400002BF0D035E0104B00221A60FFF7AAFA7E
:101DD400386108E0FFF7A6FA02463B69D31A022BE2
:101DE40001D9032326E0064B1B6803F00073002B84
:101DF400F0D11EE07B68DB69012B07D1012319E0D8
:101E04000010024000700040600042420B4B5B68CF
:101E1400FB60FB6803F480327B681B6A9A4206D13C
:101E2400FB6803F470127B685B6A9A4201D0012359
:101E340000E0002318461837BD4680BD001002405C
:101E440080B584B000AF786039607B68002B01D125
:101E54000123D0E06A4B1B6803F007033A689A42F7
:101E640010D9674B1B6823F0070265493B6813438D
:101E74000B60634B1B6803F007033A689A4201D076
:101E84000123B8E07B681B6803F00203002B20D019
:101E94007B681B6803F00403002B05D0594B5B6877
:101EA400584A43F4E06353607B681B6803F00803FB
:101EB400002B05D0534B5B68524A43F46053536084
:101EC400504B5B6823F0F0027B689B684D491343D9
:101ED4004B607B681B6803F00103002B40D07B68D8
:101EE4005B68012B07D1474B1B6803F40033002BBD
:101EF40015D101237FE07B685B68022B07D1414B3E
:101F04001B6803F00073002B09D1012373E03D4BE0
:101F14001B6803F00203002B01D101236BE0394B52
:101F24005B6823F003027B685B68364913434B60AC
:101F3400FFF7F8F9F8600AE0FFF7F4F90246FB68E6
:101F4400D31A41F28832934201D9032353E02D4B33
:101F54005B6803F00C027B685B689B009A42EBD1E0
:101F6400274B1B6803F007033A689A4210D2244BAC
:101F74001B6823F0070222493B6813430B60204B84
:101F84001B6803F007033A689A4201D0012332E048
:101F94007B681B6803F00403002B08D0194B5B68B3
:101FA40023F4E0627B68DB68164913434B607B686B
:101FB4001B6803F00803002B09D0124B5B6823F461
:101FC40060527B681B69DB000E4913434B6000F0D1
:101FD40021F802460B4B5B681B0903F00F030A4907
:101FE400CB5C22FA03F3094A1360094B1B681846B9
:101FF400FFF756F9002318461037BD4680BD00BFD1
:1020040000200240001002400447000804000020A1
:102014000800002080B487B000AF0023FB600023D9
:10202400BB6000237B6100237B6000233B611E4B6C
:102034005B68FB60FB6803F00C03042B02D0082BE5
:1020440003D027E0194B3B6127E0FB689B0C03F0AE
:102054000F03174AD35C7B60FB6803F48033002BC7
:1020640010D0114B5B685B0C03F00103114AD35C85
:10207400BB607B680D4A03FB02F2BB68B2FBF3F35F
:102084007B6104E07B680C4A02FB03F37B617B69A0
:102094003B6102E0054B3B6100BF3B6918461C37BE
:1020A400BD4680BC704700BF0010024000127A0099
:1020B400144700082447000800093D0080B485B097
:1020C40000AF78600A4B1B680A4AA2FB03235B0A31
:1020D4007A6802FB03F3FB6000BFFB685A1EFA60D8
:1020E400002BF9D100BF00BF1437BD4680BC704738
:1020F40004000020D34D621080B582B000AF786038
:102104007B68002B01D1012341E07B6893F83D30CB
:10211400DBB2002B06D17B68002283F83C20786870
:10212400FFF708F87B68022283F83D207B681A6871
:102134007B6804331946104600F036FC7B680122A4
:1021440083F846207B68012283F83E207B680122C5
:1021540083F83F207B68012283F840207B680122BA
:1021640083F841207B68012283F842207B680122A6
:1021740083F843207B68012283F844207B68012292
:1021840083F845207B68012283F83D20002318460C
:102194000837BD4680BD000080B485B000AF7860CC
:1021A4007B6893F83D30DBB2012B01D0012344E07E
:1021B4007B68022283F83D207B681B68DA687B68B1
:1021C4001B6842F00102DA607B681B681D4A934277
:1021D40018D07B681B681C4A934213D07B681B6829
:1021E400B3F1804F0ED07B681B68184A934209D024
:1021F4007B681B68164A934204D07B681B68154AA7
:10220400934211D17B681B689B6803F00703FB6052
:10221400FB68062B10D07B681B681A687B681B68F8
:1022240042F001021A6007E07B681B681A687B6849
:102234001B6842F001021A60002318461437BD4699
:1022440080BC7047002C0140003401400004004071
:1022540000080040000C004080B582B000AF7860F8
:102264007B68002B01D1012341E07B6893F83D306A
:10227400DBB2002B06D17B68002283F83C2078680F
:10228400FEF726FF7B68022283F83D207B681A68EC
:102294007B6804331946104600F086FB7B680122F4
:1022A40083F846207B68012283F83E207B68012264
:1022B40083F83F207B68012283F840207B68012259
:1022C40083F841207B68012283F842207B68012245
:1022D40083F843207B68012283F844207B68012231
:1022E40083F845207B68012283F83D2000231846AB
:1022F4000837BD4680BD000080B584B000AF78606B
:1023040039603B68002B09D17B6893F83E30DBB21F
:10231400012B14BF01230023DBB222E03B68042B12
:1023240009D17B6893F83F30DBB2012B14BF012342
:102334000023DBB215E03B68082B09D17B6893F8D6
:102344004030DBB2012B14BF01230023DBB208E0D1
:102354007B6893F84130DBB2012B14BF01230023C7
:10236400DBB2002B01D0012372E03B68002B04D1C7
:102374007B68022283F83E2013E03B68042B04D1DF
:102384007B68022283F83F200BE03B68082B04D1D2
:102394007B68022283F8402003E07B68022283F8F2
:1023A40041207B681B6801223968184600F0C4FD8F
:1023B4007B681B68284A934204D07B681B68274AC1
:1023C400934201D1012300E00023002B07D07B6856
:1023D4001B685A6C7B681B6842F400425A647B6831
:1023E4001B681D4A934218D07B681B681B4A9342A2
:1023F40013D07B681B68B3F1804F0ED07B681B68D9
:10240400174A934209D07B681B68164A934204D04A
:102414007B681B68144A934211D17B681B689B68D4
:1024240003F00703FB60FB68062B10D07B681B6876
:102434001A687B681B6842F001021A6007E07B6837
:102444001B681A687B681B6842F001021A6000234B
:1024540018461037BD4680BD002C014000340140B1
:102464000004004000080040000C004080B584B027
:1024740000AF78607B681B68DB68FB607B681B6867
:102484001B69BB60BB6803F00203002B20D0FB6810
:1024940003F00203002B1BD07B681B686FF0020261
:1024A4001A617B6801221A777B681B689B6903F0B9
:1024B4000303002B03D0786800F05AFA05E078682B
:1024C40000F04DFA786800F05CFA7B6800221A7715
:1024D400BB6803F00403002B20D0FB6803F0040363
:1024E400002B1BD07B681B686FF004021A617B68A9
:1024F40002221A777B681B689B6903F44073002BE4
:1025040003D0786800F034FA05E0786800F027FA20
:10251400786800F036FA7B6800221A77BB6803F00B
:102524000803002B20D0FB6803F00803002B1BD00A
:102534007B681B686FF008021A617B6804221A77B3
:102544007B681B68DB6903F00303002B03D0786806
:1025540000F00EFA05E0786800F001FA786800F0FF
:1025640010FA7B6800221A77BB6803F01003002B73
:1025740020D0FB6803F01003002B1BD07B681B6882
:102584006FF010021A617B6808221A777B681B6857
:10259400DB6903F44073002B03D0786800F0E8F99A
:1025A40005E0786800F0DBF9786800F0EAF97B6808
:1025B40000221A77BB6803F00103002B0CD0FB68E0
:1025C40003F00103002B07D07B681B686FF0010246
:1025D4001A617868FEF744FABB6803F08003002BA5
:1025E4000CD0FB6803F08003002B07D07B681B68CA
:1025F4006FF080021A61786800F088FDBB6803F010
:102604004003002B0CD0FB6803F04003002B07D0E1
:102614007B681B686FF040021A61786800F0BAF9B1
:10262400BB6803F02003002B0CD0FB6803F02003ED
:10263400002B07D07B681B686FF020021A61786852
:1026440000F05BFD00BF1037BD4680BD80B586B08D
:1026540000AFF860B9607A600023FB75FB6893F8FB
:102664003C30012B01D10223AEE0FB68012283F848
:102674003C207B680C2B00F29F8001A252F823F0CF
:10268400B9260008BD270008BD270008BD2700089B
:10269400F9260008BD270008BD270008BD2700084B
:1026A4003B270008BD270008BD270008BD270008F8
:1026B4007B270008FB681B68B968184600F0FAF924
:1026C400FB681B689A69FB681B6842F008029A6100
:1026D400FB681B689A69FB681B6822F004029A6114
:1026E400FB681B689969BB681A69FB681B680A4325
:1026F4009A6164E0FB681B68B968184600F04AFAFE
:10270400FB681B689A69FB681B6842F400629A6163
:10271400FB681B689A69FB681B6822F480629A61F3
:10272400FB681B689969BB681B691A02FB681B6814
:102734000A439A6143E0FB681B68B968184600F0D5
:102744009DFAFB681B68DA69FB681B6842F00802A3
:10275400DA61FB681B68DA69FB681B6822F0040213
:10276400DA61FB681B68D969BB681A69FB681B6876
:102774000A43DA6123E0FB681B68B968184600F075
:10278400F1FAFB681B68DA69FB681B6842F40062B3
:10279400DA61FB681B68DA69FB681B6822F48062F3
:1027A400DA61FB681B68D969BB681B691A02FB689C
:1027B4001B680A43DA6102E00123FB7500BFFB6872
:1027C400002283F83C20FB7D18461837BD4680BDA7
:1027D40080B584B000AF786039600023FB737B68F8
:1027E40093F83C30012B01D10223B4E07B68012231
:1027F40083F83C207B68022283F83D207B681B68B9
:102804009B68BB60BB6823F07703BB60BB6823F4A1
:102814007F43BB607B681B68BA689A603B681B682F
:10282400B3F5005F3ED0B3F5005F00F28780B3F5E7
:10283400805F00F08680B3F5805F7FD8702B1AD05C
:10284400702B7BD8602B50D0602B77D8502B3CD08A
:10285400502B73D8402B58D0402B6FD8302B64D0DA
:10286400302B6BD8202B60D0202B67D8002B5CD06A
:10287400102B5AD062E07B6818683B6899683B6803
:102884005A683B68DB6800F038FB7B681B689B6810
:10289400BB60BB6843F07703BB607B681B68BA68A6
:1028A4009A604FE07B6818683B6899683B685A688F
:1028B4003B68DB6800F021FB7B681B689A687B68D7
:1028C4001B6842F480429A603CE07B6818683B686D
:1028D40059683B68DB681A4600F098FA7B681B6805
:1028E4005021184600F0EFFA2CE07B6818683B682A
:1028F40059683B68DB681A4600F0B6FA7B681B68C7
:102904006021184600F0DFFA1CE07B6818683B6819
:1029140059683B68DB681A4600F078FA7B681B68E4
:102924004021184600F0CFFA0CE07B681A683B6837
:102934001B681946104600F0C6FA03E00123FB7336
:1029440000E000BF7B68012283F83D207B68002201
:1029540083F83C20FB7B18461037BD4680BD80B40D
:1029640083B000AF786000BF0C37BD4680BC7047B1
:1029740080B483B000AF786000BF0C37BD4680BC24
:10298400704780B483B000AF786000BF0C37BD4699
:1029940080BC704780B483B000AF786000BF0C3750
:1029A400BD4680BC7047000080B485B000AF78603D
:1029B40039607B681B68FB607B68394A934213D09B
:1029C4007B68384A93420FD07B68B3F1804F0BD0B9
:1029D4007B68354A934207D07B68344A934203D0DC
:1029E4007B68334A934208D1FB6823F07003FB6091
:1029F4003B685B68FA681343FB607B68284A934230
:102A040013D07B68274A93420FD07B68B3F1804F81
:102A14000BD07B68244A934207D07B68234A9342B5
:102A240003D07B68224A934208D1FB6823F44073A5
:102A3400FB603B68DB68FA681343FB60FB6823F0C8
:102A440080023B685B691343FB607B68FA681A6029
:102A54003B689A687B68DA623B681A687B689A62AA
:102A64007B680F4A934203D07B680E4A934203D19A
:102A74003B681A697B681A637B6801225A617B6828
:102A84001B6903F00103002B05D07B681B6923F04D
:102A940001027B681A6100BF1437BD4680BC7047D1
:102AA400002C0140003401400004004000080040B4
:102AB400000C004080B487B000AF786039607B6858
:102AC4001B6A7B617B681B6A23F001027B681A62C4
:102AD4007B685B683B617B689B69FB60FB6823F0F8
:102AE4007003FB60FB6823F00303FB603B681B6817
:102AF400FA681343FB607B6923F002037B613B6844
:102B04009B687A6913437B617B68204A934203D0B4
:102B14007B681F4A93420CD17B6923F008037B61D5
:102B24003B68DB687A6913437B617B6923F00403A8
:102B34007B617B68154A934203D07B68144A9342B5
:102B440011D13B6923F480733B613B6923F4007327
:102B54003B613B685B693A6913433B613B689B6932
:102B64003A6913433B617B683A695A607B68FA6847
:102B74009A613B685A687B685A637B687A691A620F
:102B840000BF1C37BD4680BC704700BF002C01400D
:102B94000034014080B487B000AF786039607B684E
:102BA4001B6A7B617B681B6A23F010027B681A62D4
:102BB4007B685B683B617B689B69FB60FB6823F413
:102BC400E043FB60FB6823F44073FB603B681B68D5
:102BD4001B02FA681343FB607B6923F020037B61CB
:102BE4003B689B681B017A6913437B617B68214ABC
:102BF400934203D07B68204A93420DD17B6923F032
:102C040080037B613B68DB681B017A6913437B614A
:102C14007B6923F040037B617B68164A934203D0AF
:102C24007B68154A934213D13B6923F480633B616B
:102C34003B6923F400633B613B685B699B003A6931
:102C440013433B613B689B699B003A6913433B61B7
:102C54007B683A695A607B68FA689A613B685A688B
:102C64007B689A637B687A691A6200BF1C37BD4629
:102C740080BC7047002C01400034014080B487B010
:102C840000AF786039607B681B6A7B617B681B6A74
:102C940023F480727B681A627B685B683B617B68A3
:102CA400DB69FB60FB6823F07003FB60FB6823F0C7
:102CB4000303FB603B681B68FA681343FB607B6992
:102CC40023F400737B613B689B681B027A6913439E
:102CD4007B617B68214A934203D07B68204A9342FC
:102CE4000DD17B6923F400637B613B68DB681B02C5
:102CF4007A6913437B617B6923F480637B617B681E
:102D0400164A934203D07B68154A934213D13B6918
:102D140023F480533B613B6923F400533B613B68DC
:102D24005B691B013A6913433B613B689B691B0167
:102D34003A6913433B617B683A695A607B68FA6875
:102D4400DA613B685A687B68DA637B687A691A627D
:102D540000BF1C37BD4680BC704700BF002C01403B
:102D64000034014080B487B000AF786039607B687C
:102D74001B6A3B617B681B6A23F480527B681A627E
:102D84007B685B687B617B68DB69FB60FB6823F4C1
:102D9400E043FB60FB6823F44073FB603B681B6803
:102DA4001B02FA681343FB603B6923F400533B6145
:102DB4003B689B681B033A6913433B617B68114A78
:102DC400934203D07B68104A934209D17B6923F470
:102DD40080437B613B685B699B017A6913437B6138
:102DE4007B687A695A607B68FA68DA613B685A687A
:102DF4007B681A647B683A691A6200BF1C37BD4657
:102E040080BC7047002C01400034014080B487B07E
:102E140000AFF860B9607A60FB681B6A7B61FB688D
:102E24001B6A23F00102FB681A62FB689B693B6121
:102E34003B6923F0F0033B617B681B013A69134350
:102E44003B617B6923F00A037B617A69BB681343A6
:102E54007B61FB683A699A61FB687A691A6200BF10
:102E64001C37BD4680BC704780B487B000AFF860A3
:102E7400B9607A60FB681B6A7B61FB681B6A23F09C
:102E84001002FB681A62FB689B693B613B6923F48F
:102E940070433B617B681B033A6913433B617B6965
:102EA40023F0A0037B61BB681B017A6913437B6138
:102EB400FB683A699A61FB687A691A6200BF1C3739
:102EC400BD4680BC704780B485B000AF786039607F
:102ED4007B689B68FB60FB6823F07003FB603A68C7
:102EE400FB68134343F00703FB607B68FA689A604E
:102EF40000BF1437BD4680BC704780B487B000AFB4
:102F0400F860B9607A603B60FB689B687B617B69B1
:102F140023F47F437B613B681A027B681A43BB68D6
:102F240013437A6913437B61FB687A699A6000BF33
:102F34001C37BD4680BC704780B487B000AFF860D2
:102F4400B9607A60BB6803F01F03012202FA03F33D
:102F54007B61FB681A6A7B69DB431A40FB681A626F
:102F6400FB681A6ABB6803F01F03796801FA03F36C
:102F74001A43FB681A6200BF1C37BD4680BC704709
:102F840080B485B000AF786039607B6893F83C30DA
:102F9400012B01D1022350E07B68012283F83C20FD
:102FA4007B68022283F83D207B681B685B68FB60BA
:102FB4007B681B689B68BB60FB6823F07003FB6045
:102FC4003B681B68FA681343FB607B681B68FA68FC
:102FD4005A607B681B681B4A934218D07B681B6845
:102FE400194A934213D07B681B68B3F1804F0ED00B
:102FF4007B681B68154A934209D07B681B68144A96
:10300400934204D07B681B68124A93420CD1BB687C
:1030140023F08003BB603B685B68BA681343BB6002
:103024007B681B68BA689A607B68012283F83D203C
:103034007B68002283F83C20002318461437BD46E1
:1030440080BC7047002C0140003401400004004063
:1030540000080040000C004080B485B000AF7860E8
:1030640039600023FB607B6893F83C30012B01D16D
:1030740002233DE07B68012283F83C20FB6823F0B7
:10308400FF023B68DB681343FB60FB6823F4407278
:103094003B689B681343FB60FB6823F480623B68D6
:1030A4005B681343FB60FB6823F400623B681B68A6
:1030B4001343FB60FB6823F480523B681B69134392
:1030C400FB60FB6823F400523B685B691343FB60BD
:1030D400FB6823F480423B68DB691343FB607B6835
:1030E4001B68FA685A647B68002283F83C2000233A
:1030F40018461437BD4680BC704780B483B000AF17
:10310400786000BF0C37BD4680BC704780B483B084
:1031140000AF786000BF0C37BD4680BC704780B4F8
:1031240083B000AF78607B6803F500535B6EB3F542
:10313400805F08D27B6803F500535B6E01337A68C5
:1031440002F5005253667B6803F500535B6E184624
:103154000C37BD4680BC704780B485B000AFF860C2
:10316400B9607A603B60FB6800225A64FB68002205
:103174009A64FB680022DA64FB6800221A65FB6823
:1031840000225A65FB6800229A65FB680022DA6512
:10319400FB6803F500531A4600235366FB6803F5E6
:1031A40000530022A3F86C20FB68BA681A60FB681D
:1031B4007A685A60FB683A689A60FB68BA69DA60B0
:1031C400FB68FA691A61FB683A6A5A61FB68BA8C4F
:1031D4001A83FB68BA6ADA61FB68BA8D1A84FB68E1
:1031E4003A6B5A62FB68BA8E1A85FB68BA6BDA626C
:1031F400FB68BA8F1A86FB683A6C5A63FB68B7F8A7
:1032040044201A87FB68BA6CDA63FB68B7F84C2071
:10321400A3F84020FB6803F50053C822A3F86A20F2
:10322400FB6803F50053002283F86820FB68002242
:1032340083F84220FB6818461437BD4680BC7047AB
:1032440080B582B000AF78607B689B68002B05D1A5
:103254007B681B681B6800225A6318E07B689B68C4
:10326400042B05D17B681B681B6800229A630EE05F
:103274007B689B68082B05D17B681B681B68002250
:10328400DA6304E07B681B681B6800221A647B68AD
:10329400DB68002B05D17B681B681B6800225A631E
:1032A40018E07B68DB68042B05D17B681B681B680E
:1032B40000229A630EE07B68DB68082B05D17B68EB
:1032C4001B681B680022DA6304E07B681B681B68C8
:1032D40000221A647B681B69002B05D17B681B687C
:1032E4001B6800225A6318E07B681B69042B05D114
:1032F4007B681B681B6800229A630EE07B681B696D
:10330400082B05D17B681B681B680022DA6304E084
:103314007B681B681B6800221A647B6858697B6899
:103324001B8B01221946FEF7C0FA7B68D8697B68BB
:103334001B8C01221946FEF7B8FA7B68586A7B6831
:103344001B8D01221946FEF7B0FA00BF0837BD46AF
:1033540080BD80B584B000AF78607B68DA6A7B6832
:103364001B8E19461046FEF789FA0346FB737B68E9
:103374005A6B7B681B8F19461046FEF77FFA03468B
:10338400BB737B68DA6B7B68B3F840301946104630
:10339400FEF774FA03467B7397F90F309B005AB219
:1033A40097F90E305B005BB213435AB297F90D30B4
:1033B40013435BB2DAB27B6883F8422000BF103754
:1033C400BD4680BD80B483B000AF78600B46FB700F
:1033D4007B68FA7883F8432000BF0C37BD4680BC75
:1033E4007047000080B582B000AF78607B6803F559
:1033F400005393F8683083F00103DBB2002B00F034
:1034040083807B689B68002B05D17B681B681B68E5
:1034140000225A6318E07B689B68042B05D17B6803
:103424001B681B6800229A630EE07B689B68082B6C
:1034340005D17B681B681B680022DA6304E07B68A3
:103444001B681B6800221A647B68DB68002B05D1AB
:103454007B681B681B6800225A6318E07B68DB6882
:10346400042B05D17B681B681B6800229A630EE05D
:103474007B68DB68082B05D17B681B681B6800220E
:10348400DA6304E07B681B681B6800221A647B68AB
:103494001B69002B05D17B681B681B6800225A63DB
:1034A40018E07B681B69042B05D17B681B681B68CB
:1034B40000229A630EE07B681B69082B05D17B68A8
:1034C4001B681B680022DA6304E07B681B681B68C6
:1034D40000221A647B6858697B681B8B0122194699
:1034E400FEF7E3F97B68D8697B681B8C01221946D7
:1034F400FEF7DBF97B68586A7B681B8D012219464D
:10350400FEF7D3F901F0C1B87B6893F84330002B80
:1035140004D0012B00F0088401F0B7B87B6893F85D
:103524004230013B052B00F27B8301A252F823F0C9
:10353400013B0008B9380008DD390008713600087D
:103544004D350008953700087B689B68002B09D12E
:103554007B6803F50053B3F86A207B681B681B681B
:103564005A6324E07B689B68042B09D17B6803F5CC
:103574000053B3F86A207B681B681B689A6316E0E3
:103584007B689B68082B09D17B6803F50053B3F86B
:103594006A207B681B681B68DA6308E07B6803F5B4
:1035A4000053B3F86A207B681B681B681A647B6845
:1035B400DB68002B05D17B681B681B6800225A63FB
:1035C40018E07B68DB68042B05D17B681B681B68EB
:1035D40000229A630EE07B68DB68082B05D17B68C8
:1035E4001B681B680022DA6304E07B681B681B68A5
:1035F40000221A647B681B69002B05D17B681B6859
:103604001B6800225A6318E07B681B69042B05D1F0
:103614007B681B681B6800229A630EE07B681B6949
:10362400082B05D17B681B681B680022DA6304E061
:103634007B681B681B6800221A647B6858697B6876
:103644001B8B01221946FEF730F97B68D8697B6829
:103654001B8C00221946FEF728F97B68586A7B68A0
:103664001B8D01221946FEF720F95BE37B689B68FA
:10367400002B05D17B681B681B6800225A6318E085
:103684007B689B68042B05D17B681B681B68002240
:103694009A630EE07B689B68082B05D17B681B68E6
:1036A4001B680022DA6304E07B681B681B68002245
:1036B4001A647B68DB68002B05D17B681B681B6878
:1036C40000225A6318E07B68DB68042B05D17B6811
:1036D4001B681B6800229A630EE07B68DB68082B7A
:1036E40005D17B681B681B680022DA6304E07B68F1
:1036F4001B681B6800221A647B681B69002B09D1B4
:103704007B6803F50053B3F86A207B681B681B6869
:103714005A6324E07B681B69042B09D17B6803F599
:103724000053B3F86A207B681B681B689A6316E031
:103734007B681B69082B09D17B6803F50053B3F838
:103744006A207B681B681B68DA6308E07B6803F502
:103754000053B3F86A207B681B681B681A647B6893
:1037640058697B681B8B01221946FEF79EF87B681B
:10377400D8697B681B8C00221946FEF796F87B6893
:10378400586A7B681B8D01221946FEF78EF8C9E240
:103794007B689B68002B05D17B681B681B68002233
:1037A4005A6318E07B689B68042B05D17B681B680F
:1037B4001B6800229A630EE07B689B68082B05D186
:1037C4007B681B681B680022DA6304E07B681B6863
:1037D4001B6800221A647B68DB68002B05D17B68B8
:1037E4001B681B6800225A6318E07B68DB68042BA3
:1037F40005D17B681B681B6800229A630EE07B6816
:10380400DB68082B05D17B681B681B680022DA6320
:1038140004E07B681B681B6800221A647B681B69D0
:10382400002B09D17B6803F50053B3F86A207B6849
:103834001B681B685A6324E07B681B69042B09D14D
:103844007B6803F50053B3F86A207B681B681B6828
:103854009A6316E07B681B69082B09D17B6803F522
:103864000053B3F86A207B681B681B68DA6308E0BE
:103874007B6803F50053B3F86A207B681B681B68F8
:103884001A647B6858697B681B8B00221946FEF713
:103894000CF87B68D8697B681B8C01221946FEF7FB
:1038A40004F87B68586A7B681B8D01221946FDF772
:1038B400FCFF37E27B689B68002B05D17B681B68A3
:1038C4001B6800225A6318E07B689B68042B05D1AF
:1038D4007B681B681B6800229A630EE07B689B6808
:1038E400082B05D17B681B681B680022DA6304E09F
:1038F4007B681B681B6800221A647B68DB68002BEA
:1039040009D17B6803F50053B3F86A207B681B6810
:103914001B685A6324E07B68DB68042B09D17B684D
:1039240003F50053B3F86A207B681B681B689A632D
:1039340016E07B68DB68082B09D17B6803F500532C
:10394400B3F86A207B681B681B68DA6308E07B684D
:1039540003F50053B3F86A207B681B681B681A647C
:103964007B681B69002B05D17B681B681B680022E0
:103974005A6318E07B681B69042B05D17B681B68BC
:103984001B6800229A630EE07B681B69082B05D133
:103994007B681B681B680022DA6304E07B681B6891
:1039A4001B6800221A647B6858697B681B8B0022A1
:1039B4001946FDF77AFF7B68D8697B681B8C012266
:1039C4001946FDF772FF7B68586A7B681B8D0122DC
:1039D4001946FDF76AFFA5E17B689B68002B05D1BA
:1039E4007B681B681B6800225A6318E07B689B682D
:1039F400042B05D17B681B681B6800229A630EE0C8
:103A04007B689B68082B05D17B681B681B680022B8
:103A1400DA6304E07B681B681B6800221A647B6815
:103A2400DB68002B09D17B6803F50053B3F86A20E7
:103A34007B681B681B685A6324E07B68DB68042B83
:103A440009D17B6803F50053B3F86A207B681B68CF
:103A54001B689A6316E07B68DB68082B09D17B68D6
:103A640003F50053B3F86A207B681B681B68DA63AC
:103A740008E07B6803F50053B3F86A207B681B6891
:103A84001B681A647B681B69002B05D17B681B6863
:103A94001B6800225A6318E07B681B69042B05D15C
:103AA4007B681B681B6800229A630EE07B681B69B5
:103AB400082B05D17B681B681B680022DA6304E0CD
:103AC4007B681B681B6800221A647B6858697B68E2
:103AD4001B8B01221946FDF7E8FE7B68D8697B68D9
:103AE4001B8C01221946FDF7E0FE7B68586A7B684F
:103AF4001B8D00221946FDF7D8FE13E17B689B68F5
:103B0400002B09D17B6803F50053B3F86A207B6866
:103B14001B681B685A6324E07B689B68042B09D1EB
:103B24007B6803F50053B3F86A207B681B681B6845
:103B34009A6316E07B689B68082B09D17B6803F5C0
:103B44000053B3F86A207B681B681B68DA6308E0DB
:103B54007B6803F50053B3F86A207B681B681B6815
:103B64001A647B68DB68002B05D17B681B681B68C3
:103B740000225A6318E07B68DB68042B05D17B685C
:103B84001B681B6800229A630EE07B68DB68082BC5
:103B940005D17B681B681B680022DA6304E07B683C
:103BA4001B681B6800221A647B681B69002B05D103
:103BB4007B681B681B6800225A6318E07B681B69DA
:103BC400042B05D17B681B681B6800229A630EE0F6
:103BD4007B681B69082B05D17B681B681B68002266
:103BE400DA6304E07B681B681B6800221A647B6844
:103BF40058697B681B8B01221946FDF756FE7B68CA
:103C0400D8697B681B8C01221946FDF74EFE7B6840
:103C1400586A7B681B8D00221946FDF746FE81E039
:103C24007B689B68002B05D17B681B681B6800229E
:103C34005A6318E07B689B68042B05D17B681B687A
:103C44001B6800229A630EE07B689B68082B05D1F1
:103C54007B681B681B680022DA6304E07B681B68CE
:103C64001B6800221A647B68DB68002B05D17B6823
:103C74001B681B6800225A6318E07B68DB68042B0E
:103C840005D17B681B681B6800229A630EE07B6881
:103C9400DB68082B05D17B681B681B680022DA638C
:103CA40004E07B681B681B6800221A647B681B693C
:103CB400002B05D17B681B681B6800225A6318E03F
:103CC4007B681B69042B05D17B681B681B68002279
:103CD4009A630EE07B681B69082B05D17B681B681F
:103CE4001B680022DA6304E07B681B681B680022FF
:103CF4001A647B6858697B681B8B01221946FDF79F
:103D0400D4FD7B68D8697B681B8C01221946FDF7BA
:103D1400CCFD7B68586A7B681B8D01221946FDF730
:103D2400C4FD00BF00F0B1BC7B6893F84230013B96
:103D3400052B00F2178401A252F823F0593D000824
:103D440009400008B13E0008B942000811440008C7
:103D5400614100087B689B68002B05D17B681B6868
:103D64001B6800225A6318E07B689B68042B05D10A
:103D74007B681B681B6800229A630EE07B689B6863
:103D8400082B05D17B681B681B680022DA6304E0FA
:103D94007B681B681B6800221A647B68DB68002B45
:103DA40005D17B681B681B6800225A6318E07B6896
:103DB400DB68042B05D17B681B681B6800229A63AF
:103DC4000EE07B68DB68082B05D17B681B681B68E9
:103DD4000022DA6304E07B681B681B6800221A6413
:103DE4007B681B69002B09D17B6803F50053B3F88A
:103DF4006A207B681B681B685A6324E07B681B6924
:103E0400042B09D17B6803F50053B3F86A207B685F
:103E14001B681B689A6316E07B681B69082B09D131
:103E24007B6803F50053B3F86A207B681B681B6842
:103E3400DA6308E07B6803F50053B3F86A207B6813
:103E44001B681B681A647B6858697B681B8B00229B
:103E54001946FDF72AFD7B68D8697B681B8C012213
:103E64001946FDF722FD7B68586A7B681B8D012289
:103E74001946FDF71AFD7B689B6C5A1C7B689A6493
:103E84007B6803F500535B6E013B7A68134493F837
:103E94006030012B00F0ED837868FFF740F90246AB
:103EA4007B681344012283F86020E2E37B689B680B
:103EB400002B05D17B681B681B6800225A6318E03D
:103EC4007B689B68042B05D17B681B681B680022F8
:103ED4009A630EE07B689B68082B05D17B681B689E
:103EE4001B680022DA6304E07B681B681B680022FD
:103EF4001A647B68DB68002B05D17B681B681B6830
:103F040000225A6318E07B68DB68042B05D17B68C8
:103F14001B681B6800229A630EE07B68DB68082B31
:103F240005D17B681B681B680022DA6304E07B68A8
:103F34001B681B6800221A647B681B69002B09D16B
:103F44007B6803F50053B3F86A207B681B681B6821
:103F54005A6324E07B681B69042B09D17B6803F551
:103F64000053B3F86A207B681B681B689A6316E0E9
:103F74007B681B69082B09D17B6803F50053B3F8F0
:103F84006A207B681B681B68DA6308E07B6803F5BA
:103F94000053B3F86A207B681B681B681A647B684B
:103FA40058697B681B8B01221946FDF77EFC7B68F0
:103FB400D8697B681B8C00221946FDF776FC7B6868
:103FC400586A7B681B8D01221946FDF76EFC7B68DD
:103FD4001B6D5A1C7B681A657B6803F500535B6E86
:103FE400013B7A68134493F86030032B00F0438359
:103FF4007868FFF794F802467B681344032283F839
:10400400602038E37B689B68002B09D17B6803F54B
:104014000053B3F86A207B681B681B685A6324E06A
:104024007B689B68042B09D17B6803F50053B3F8C4
:104034006A207B681B681B689A6316E07B689B6830
:10404400082B09D17B6803F50053B3F86A207B6819
:104054001B681B68DA6308E07B6803F50053B3F858
:104064006A207B681B681B681A647B68DB68002B0A
:1040740005D17B681B681B6800225A6318E07B68C3
:10408400DB68042B05D17B681B681B6800229A63DC
:104094000EE07B68DB68082B05D17B681B681B6816
:1040A4000022DA6304E07B681B681B6800221A6440
:1040B4007B681B69002B05D17B681B681B68002289
:1040C4005A6318E07B681B69042B05D17B681B6865
:1040D4001B6800229A630EE07B681B69082B05D1DC
:1040E4007B681B681B680022DA6304E07B681B683A
:1040F4001B6800221A647B6858697B681B8B012249
:104104001946FDF7D2FB7B68D8697B681B8C0022BB
:104114001946FDF7CAFB7B68586A7B681B8D012230
:104124001946FDF7C2FB7B68DB6C5A1C7B68DA64BA
:104134007B6803F500535B6E013B7A68134493F884
:104144006030022B00F099827868FEF7E8FF02469F
:104154007B681344022283F860208EE27B689B68AC
:10416400002B09D17B6803F50053B3F86A207B6800
:104174001B681B685A6324E07B689B68042B09D185
:104184007B6803F50053B3F86A207B681B681B68DF
:104194009A6316E07B689B68082B09D17B6803F55A
:1041A4000053B3F86A207B681B681B68DA6308E075
:1041B4007B6803F50053B3F86A207B681B681B68AF
:1041C4001A647B68DB68002B05D17B681B681B685D
:1041D40000225A6318E07B68DB68042B05D17B68F6
:1041E4001B681B6800229A630EE07B68DB68082B5F
:1041F40005D17B681B681B680022DA6304E07B68D6
:104204001B681B6800221A647B681B69002B05D19C
:104214007B681B681B6800225A6318E07B681B6973
:10422400042B05D17B681B681B6800229A630EE08F
:104234007B681B69082B05D17B681B681B680022FF
:10424400DA6304E07B681B681B6800221A647B68DD
:1042540058697B681B8B01221946FDF726FB7B6896
:10426400D8697B681B8C01221946FDF71EFB7B680D
:10427400586A7B681B8D00221946FDF716FB7B6884
:10428400DB6D5A1C7B68DA657B6803F500535B6E53
:10429400013B7A68134493F86030062B00F0EF81F9
:1042A4007868FEF73CFF02467B681344062283F8D5
:1042B4006020E4E17B689B68002B05D17B681B6868
:1042C4001B6800225A6318E07B689B68042B05D1A5
:1042D4007B681B681B6800229A630EE07B689B68FE
:1042E400082B05D17B681B681B680022DA6304E095
:1042F4007B681B681B6800221A647B68DB68002BE0
:1043040009D17B6803F50053B3F86A207B681B6806
:104314001B685A6324E07B68DB68042B09D17B6843
:1043240003F50053B3F86A207B681B681B689A6323
:1043340016E07B68DB68082B09D17B6803F5005322
:10434400B3F86A207B681B681B68DA6308E07B6843
:1043540003F50053B3F86A207B681B681B681A6472
:104364007B681B69002B05D17B681B681B680022D6
:104374005A6318E07B681B69042B05D17B681B68B2
:104384001B6800229A630EE07B681B69082B05D129
:104394007B681B681B680022DA6304E07B681B6887
:1043A4001B6800221A647B6858697B681B8B012296
:1043B4001946FDF77AFA7B68D8697B681B8C012261
:1043C4001946FDF772FA7B68586A7B681B8D0022D8
:1043D4001946FDF76AFA7B685B6D5A1C7B685A655F
:1043E4007B6803F500535B6E013B7A68134493F8D2
:1043F4006030042B00F045817868FEF790FE024699
:104404007B681344042283F860203AE17B689B684C
:10441400002B05D17B681B681B6800225A6318E0D7
:104424007B689B68042B05D17B681B681B68002292
:104434009A630EE07B689B68082B05D17B681B6838
:104444001B680022DA6304E07B681B681B68002297
:104454001A647B68DB68002B09D17B6803F5005381
:10446400B3F86A207B681B681B685A6324E07B6886
:10447400DB68042B09D17B6803F50053B3F86A2089
:104484007B681B681B689A6316E07B68DB68082BF3
:1044940009D17B6803F50053B3F86A207B681B6875
:1044A4001B68DA6308E07B6803F50053B3F86A20FD
:1044B4007B681B681B681A647B681B69002B05D129
:1044C4007B681B681B6800225A6318E07B681B69C1
:1044D400042B05D17B681B681B6800229A630EE0DD
:1044E4007B681B69082B05D17B681B681B6800224D
:1044F400DA6304E07B681B681B6800221A647B682B
:1045040058697B681B8B00221946FDF7CEF97B683E
:10451400D8697B681B8C01221946FDF7C6F97B68B4
:10452400586A7B681B8D01221946FDF7BEF97B682A
:104534009B6D5A1C7B689A657B6803F500535B6E20
:10454400013B7A68134493F86030052B00F09B809C
:104554007868FEF7E4FD02467B681344052283F87D
:10456400602090E07B689B68002B05D17B681B680A
:104574001B6800225A6318E07B689B68042B05D1F2
:104584007B681B681B6800229A630EE07B689B684B
:10459400082B05D17B681B681B680022DA6304E0E2
:1045A4007B681B681B6800221A647B68DB68002B2D
:1045B40005D17B681B681B6800225A6318E07B687E
:1045C400DB68042B05D17B681B681B6800229A6397
:1045D4000EE07B68DB68082B05D17B681B681B68D1
:1045E4000022DA6304E07B681B681B6800221A64FB
:1045F4007B681B69002B05D17B681B681B68002244
:104604005A6318E07B681B69042B05D17B681B681F
:104614001B6800229A630EE07B681B69082B05D196
:104624007B681B681B680022DA6304E07B681B68F4
:104634001B6800221A647B6858697B681B8B012203
:104644001946FDF732F97B68D8697B681B8C012217
:104654001946FDF72AF97B68586A7B681B8D01228D
:104664001946FDF722F97B685B6C5A1C7B685A6417
:104674000AE000BF08E000BF06E000BF04E000BF9E
:1046840002E000BF00E000BF00BF0837BD4680BDA8
:1046940003460244934200D1704703F8011BF9E733
:1046A40070B500260C4D0D4C641BA410A64209D114
:1046B40000F01AF800260A4D0A4C641BA410A64206
:1046C40005D170BD55F8043B98470136EEE755F81F
:1046D400043B98470136F2E72847000828470008BA
:1046E4002847000830470008F8B500BFF8BC08BCEC
:1046F4009E467047F8B500BFF8BC08BC9E4670479C
:10470400000000000000000001020304060708097D
:1047140002030405060708090A0B0C0D0E0F1010FE
:04472400010200008E
:0847280009020008A90C0008B9
:04473000E501000897
:104734004B00000000127A0010000000010000008D
:040000050800122DB0
:00000001FF
