:020000040800F2
:1000000000C00020851800088D1100089511000817
:100010009D110008A5110008AD11000800000000A6
:10002000000000000000000000000000B511000802
:10003000C111000800000000CD110008D91100080E
:10004000CD180008CD180008CD180008CD180008FC
:10005000CD180008CD180008CD180008CD180008EC
:10006000CD180008CD180008CD180008CD180008DC
:10007000E5110008F9110008CD180008CD18000896
:10008000CD180008CD180008CD180008CD180008BC
:10009000CD180008CD180008CD1800080D12000872
:1000A000CD180008CD180008CD180008CD1800089C
:1000B00029120008CD180008CD180008CD18000836
:1000C000CD180008CD180008CD180008CD1800087C
:1000D000CD180008CD180008CD1800083D12000802
:1000E00051120008CD180008CD180008CD180008DE
:1000F000CD180008CD180008CD180008CD1800084C
:10010000CD180008CD180008CD180008CD1800083B
:10011000CD180008CD180008CD180008CD1800082B
:10012000CD180008CD180008CD180008CD1800081B
:1001300000000000000000000000000000000000BF
:1001400000000000000000000000000000000000AF
:10015000000000000000000000000000000000009F
:10016000000000000000000000000000000000008F
:10017000000000000000000000000000000000007F
:10018000000000000000000000000000000000006F
:10019000000000000000000000000000000000005F
:1001A000000000000000000000000000000000004F
:1001B000000000000000000000000000000000003F
:1001C000000000000000000000000000000000002F
:1001D000000000000000000000000000000000001F
:0401E0005FF8E0F1F3
:1001E40010B5054C237833B9044B13B10448AFF36D
:1001F40000800123237010BD0C00002000000000CB
:100204001C6B000808B5034B1BB103490348AFF34B
:10021400008008BD00000000100000201C6B0008D6
:1002240080F0004002E000BF81F0004142001FBFA7
:100234005FEA410392EA030F7FEA226C7FEA236CB0
:100244006AD04FEA1262D2EB1363C1BFD2184140A5
:1002540048404140B8BF5B42192B88BF704710F03B
:10026400004F40F4000020F07F4018BF404211F0DE
:10027400004F41F4000121F07F4118BF494292EA46
:10028400030F3FD0A2F1010241FA03FC10EB0C0072
:10029400C3F1200301FA03F100F0004302D54942FF
:1002A40060EB4000B0F5000F13D3B0F1807F06D3AC
:1002B40040084FEA310102F10102FE2A51D2B1F1A4
:1002C400004F40EBC25008BF20F0010040EA030099
:1002D4007047490040EB0000013A28BFB0F5000F19
:1002E400EDD2B0FA80FCACF1080CB2EB0C0200FACF
:1002F4000CF0AABF00EBC25052421843BCBFD0401E
:100304001843704792F0000F81F4000106BF80F497
:1003140000000132013BB5E74FEA41037FEA226C5A
:1003240018BF7FEA236C21D092EA030F04D092F025
:10033400000F08BF0846704790EA010F1CBF002059
:10034400704712F07F4F04D1400028BF40F00040B6
:10035400704712F100723CBF00F50000704700F0D6
:10036400004343F0FE4040F4000070477FEA2262FD
:1003740016BF08467FEA23630146420206BF5FEACE
:10038400412390EA010F40F4800070474FF00003CE
:1003940004E000BF10F0004348BF40425FEA000C95
:1003A40008BF704743F0964301464FF000001CE03D
:1003B40050EA010208BF70474FF000030AE000BF93
:1003C40050EA010208BF704711F0004302D54042D1
:1003D40061EB41015FEA010C02BF84460146002043
:1003E40043F0B64308BFA3F18053A3F50003BCFA5E
:1003F4008CF2083AA3EBC25310DB01FA02FC63440B
:1004040000FA02FCC2F12002BCF1004F20FA02F211
:1004140043EB020008BF20F00100704702F1200204
:1004240001FA02FCC2F1200250EA4C0021FA02F265
:1004340043EB020008BF20EADC7070474FF0FF0C6A
:100444001CEAD0521EBF1CEAD15392EA0C0F93EA65
:100454000C0F6FD01A4480EA010C400218BF5FEA07
:1004640041211ED04FF0006343EA501043EA51117A
:10047400A0FB01310CF00040B1F5000F3EBF490074
:1004840041EAD3715B0040EA010062F17F02FD2A78
:100494001DD8B3F1004F40EBC25008BF20F001005B
:1004A400704790F0000F0CF0004C08BF49024CEA72
:1004B400502040EA51207F3AC2BFD2F1FF0340EA04
:1004C400C250704740F400004FF00003013A5DDC75
:1004D40012F1190FDCBF00F000407047C2F10002B6
:1004E400410021FA02F1C2F1200200FA02FC5FEAA3
:1004F400310040F1000053EA4C0308BF20EADC70ED
:10050400704792F0000F00F0004C02BF400010F45E
:10051400000F013AF9D040EA0C0093F0000F01F00B
:10052400004C02BF490011F4000F013BF9D041EA2D
:100534000C018FE70CEAD15392EA0C0F18BF93EA2F
:100544000C0F0AD030F0004C18BF31F0004CD8D159
:1005540080EA010000F00040704790F0000F17BFE0
:1005640090F0004F084691F0000F91F0004F14D026
:1005740092EA0C0F01D142020FD193EA0C0F03D17E
:100584004B0218BF084608D180EA010000F0004081
:1005940040F0FE4040F40000704740F0FE4040F45C
:1005A400400070474FF0FF0C1CEAD0521EBF1CEAFB
:1005B400D15392EA0C0F93EA0C0F69D0A2EB030219
:1005C40080EA010C49024FEA402037D04FF08053B3
:1005D40043EA111143EA10130CF000408B4238BF78
:1005E4005B0042F17D024FF4000C8B4224BF5B1A86
:1005F40040EA0C00B3EB510F24BFA3EB510340EAD4
:100604005C00B3EB910F24BFA3EB910340EA9C0081
:10061400B3EBD10F24BFA3EBD10340EADC001B01F1
:1006240018BF5FEA1C1CE0D1FD2A3FF650AF8B4295
:1006340040EBC25008BF20F0010070470CF0004CA2
:100644004CEA50207F32C2BFD2F1FF0340EAC250CD
:10065400704740F400004FF00003013A37E792F08E
:10066400000F00F0004C02BF400010F4000F013AEC
:10067400F9D040EA0C0093F0000F01F0004C02BFE7
:10068400490011F4000F013BF9D041EA0C0195E750
:100694000CEAD15392EA0C0F08D142027FF47DAFE9
:1006A40093EA0C0F7FF470AF084676E793EA0C0FD9
:1006B40004D14B023FF44CAF08466EE730F0004CD7
:1006C40018BF31F0004CCAD130F000427FF45CAF67
:1006D40031F000437FF43CAF5FE700BF4FF0FF3CD5
:1006E40006E000BF4FF0010C02E000BF4FF0010C28
:1006F4004DF804CD4FEA40024FEA41037FEA226CF1
:1007040018BF7FEA236C11D001B052EA530C18BF12
:1007140090EA010F58BFB2EB030088BFC81738BF77
:100724006FEAE17018BF40F0010070477FEA226C65
:1007340002D15FEA402C05D17FEA236CE4D15FEA61
:10074400412CE1D05DF8040B704700BF8446084695
:100754006146FFE70FB5FFF7C9FF002848BF10F156
:10076400000F0FBD4DF808EDFFF7F4FF0CBF01209B
:1007740000205DF808FB00BF4DF808EDFFF7EAFF25
:1007840034BF012000205DF808FB00BF4DF808EDE0
:10079400FFF7E0FF94BF012000205DF808FB00BFD5
:1007A4004DF808EDFFF7D2FF94BF012000205DF85B
:1007B40008FB00BF4DF808EDFFF7C8FF34BF012068
:1007C40000205DF808FB00BF4FEA4002B2F1FE4F83
:1007D4000FD34FF09E03B3EB12620DD94FEA0023FF
:1007E40043F0004310F0004F23FA02F018BF4042D8
:1007F40070474FF00000704712F1610F01D14202BF
:1008040005D110F0004008BF6FF0004070474FF072
:100814000000704780B582B000AF104B5B690F4A8F
:1008240043F0010353610D4B5B6903F001037B60EB
:100834007B68002200210C2001F081F90C2001F0DA
:100844009AF9002200210D2001F079F90D2001F020
:1008540092F900BF0837BD4680BD00BF00100240BA
:1008640080B588B000AF07F1100300221A605A6007
:100874009A60DA60494B9B69484A43F020039361CC
:10088400464B9B6903F02003FB60FB68434B9B6969
:10089400424A43F004039361404B9B6903F0040311
:1008A400BB60BB683D4B9B693C4A43F008039361C2
:1008B4003A4B9B6903F008037B607B68374B9B6969
:1008C400364A43F010039361344B9B6903F01003E1
:1008D4003B603B6800228021314801F096FF0022F2
:1008E4004EF207012F4801F090FF80233B61012362
:1008F4007B610023BB610223FB6107F110031946EE
:10090400274801F0D7FD07233B6101237B610023C6
:10091400BB610223FB6107F110031946214801F072
:10092400C9FD4FF460433B6101237B610023BB613C
:100934000323FB6107F1100319461A4801F0BAFDBD
:100944004FF4E0533B61184B7B610023BB6107F11B
:1009540010031946154801F0ADFDE0233B61124B2D
:100964007B610023BB6107F1100319460D4801F0B8
:10097400A1FD00220021172001F0E1F8172001F069
:10098400FAF800220021282001F0D9F8282001F0EB
:10099400F2F800BF2037BD4680BD00BF0010024002
:1009A40000080140000C014000003110001001401B
:1009B40080B483B000AF78607B6893F8BC3018468D
:1009C4000C37BD4680BC704780B584B000AF7860FA
:1009D4008223FB600023BB6018E0104ABB6852F816
:1009E40033301846FFF7D6FC034619467868FFF7FC
:1009F400D7FE0346002B00D10BE0084ABB68DB009E
:100A040013445B68FB60BB680133BB60BB682A2B83
:100A1400E3DDFB6818461037BD4680BD346B000823
:100A240080B582B000AF00F051FF00F0DFF9FFF7AE
:100A340017FF00F021FC00F007FD00F0B9FCFFF700
:100A4400E9FE00F049FE6A4802F088FB694805F0B7
:100A540071FE0021684802F031FC0421664802F06E
:100A64002DFC0821644802F029FC0021634802F0AF
:100A740025FC0421614802F021FC08215F4802F0B2
:100A84001DFC5D4B1B685A6C5B4B1B6842F40042B7
:100A94005A645A4B1B685A6C584B1B6842F4004208
:100AA4005A64554B1B6800225A63534B1B6800223F
:100AB4009A63514B1B680022DA63504B1B68002277
:100AC4005A634E4B1B6800229A634C4B1B680022EE
:100AD400DA6301224FF40051494801F096FE0122E5
:100AE4004FF48041464801F090FE01224FF400414A
:100AF400434801F08AFE01228021424801F085FE2C
:100B0400012202213E4801F080FE012201213C48DD
:100B140001F07BFE3C4804F055FB3C4804F052FBDA
:100B2400394B012283F84320384B012283F84320B8
:100B34000021354804F0D4FC0021344804F0D0FCF2
:100B4400314804F0C8FB314804F0C5FB304B1B6846
:100B54009BB219462C4804F04DFD2E4B1B689BB2EA
:100B640019462A4804F046FD2B4B1B78DBB2002BB8
:100B740014BF01230023DBB2002B05D0264B002237
:100B84001A701C4805F016FE244B1B78DBB2002BB0
:100B940014BF01230023DBB2002B00F0D7801F4BCE
:100BA40000221A70134805F0C1FE03461C4A136064
:100BB400104805F0C7FE03461A4A13600D4805F0B5
:100BC400CDFE0346184A1360154B1B684FF07E5147
:100BD4001846FFF7C7FD0346002B27D000210A481B
:100BE40004F07EFC0021094804F07AFC30E000BFE8
:100BF400C4040020A80100207C0400200C0500206F
:100C0400000C01400008014028000020E8000020FA
:100C1400580400205C0400207504002076040020A1
:100C2400480400204C040020500400205E4B1B6844
:100C34004FF080411846FFF795FD0346002B07D07F
:100C440001215A4804F04CFC0121594804F048FCA5
:100C54005849564804F090FB5649554804F08CFB1B
:100C6400524B1B6D1846FFF7AFFE7860504B1B6D5F
:100C74001846FFF7A9FE38604F4B1B681846FFF76C
:100C8400A3FD01467B684B4A484804F038FC034600
:100C94004A4A13604A4B1B681846FFF795FD014604
:100CA4003B68444A424804F02AFC0346454A136020
:100CB400424B1B687A689A4202DA404A7B681360A6
:100CC400404B1B683A689A4202DA3E4A3B6813601A
:100CD4003A4B1B689BB21946344804F08BFC394BE1
:100CE4001B689BB21946324804F084FC2F4B5B6DA1
:100CF400354A13602E4B5B6D344A13602B48FFF763
:100D040057FE0346012B0CBF01230023DBB2002B4B
:100D14000BD02D4B1B6883F000432B4A13602B4BE5
:100D24001B6883F00043294A1360274B1B68274A3A
:100D340012681946264805F0B8FC2649244805F0EF
:100D440019FE0D222349244803F01CFA234B1B7877
:100D5400DBB2002B14BF01230023DBB2002B02D033
:100D64001E4B00221A701E4B1B78DBB2002B14BFE3
:100D740001230023DBB2002B02D0194B00221A708E
:100D8400184B1B78DBB2002B14BF01230023DBB20A
:100D9400002B3FF4DBAE134B00221A7004211248DF
:100DA40001F04BFDD2E600BF4804002028000020DB
:100DB400E80000200AD7A33C4C040020580400207B
:100DC400500400205C04002060040020640400201F
:100DD40088020020680400205405002077040020C5
:100DE4007804002079040020000C014080B590B004
:100DF40000AF07F1180328220021184605F051FE20
:100E04003B1D00221A605A609A60DA601A6102235C
:100E1400BB610123BB621023FB6200237B6307F1E8
:100E24001803184601F03AFD0346002B14BF0123B2
:100E34000023DBB2002B01D000F0ECF80F237B6021
:100E44000023BB600023FB604FF480633B610023FD
:100E54007B613B1D0021184601F0A2FF0346002BD5
:100E640014BF01230023DBB2002B01D000F0D2F821
:100E740000BF4037BD4680BD80B582B000AF034699
:100E8400FB80FB88B3F5805F07D0FB88B3F5006F68
:100E940003D0FB88B3F5806F02D1094804F01BFA34
:100EA400FB88802B05D0FB88202B02D0FB88402BAD
:100EB40002D1044804F00FFA00BF0837BD4680BDD4
:100EC40028000020E800002080B483B000AF7860E0
:100ED4007B681B68B3F1804F6AD1384B1B889BB287
:100EE40001339AB2354B1A80344B1B889BB203F002
:100EF4000103002B0CBF01230023DBB2002B02D023
:100F04002F4B01221A702D4B1B889BB203F0030355
:100F1400002B0CBF01230023DBB2002B02D0294B92
:100F240001221A70254B1B889AB2274BA3FB02138C
:100F340019090B469B000B449B00D31A9BB2002B50
:100F44000CBF01230023DBB2002B02D01F4B012274
:100F54001A701A4B1B889BB21D4AA2FB031252093A
:100F6400642101FB02F29B1A9BB2002B0CBF0123EC
:100F74000023DBB2002B02D0164B01221A700F4B58
:100F84001B889BB2124AA2FB03129209C82101FBDF
:100F940002F29B1A9BB2002B0CBF01230023DBB28D
:100FA400002B05D00C4B01221A70044B00221A802E
:100FB40000BF0C37BD4680BC704700BF7A040020D8
:100FC4007504002076040020CDCCCCCC770400201E
:100FD4001F85EB51780400207904002080B582B08D
:100FE40000AF78607B681B68074A934207D10748C3
:100FF40005F0B0FB064B1B680133054A136000BFC4
:101004000837BD4680BD00BF00480040A80100204D
:101014005404002080B400AF72B600BF00BFFDE7E7
:1010240080B58EB00EAF4FF480630D932E4B0C93AE
:101034004FF400630B932C4B0A934FF480530993A2
:10104400294B08934FF400430793284B06934FF41E
:1010540080430593254B04934FF400530393234B90
:10106400029308230193042300930023204A214977
:10107400214804F021F840230D931C4B0C932023AA
:101084000B931A4B0A9380230993184B089301235B
:101094000793164B069302230593144B0493802362
:1010A4000393164B02930423019308230093002314
:1010B4000F4A1349134803F0FFFF1349134805F07F
:1010C40083FA09230093062334221221104805F0E1
:1010D400A9FA092300930823342212210D4805F0AC
:1010E400A1FA00BFBD4680BD00100140000C0140C4
:1010F400C40400207C0400202800002000080140D3
:101104000C050020E800002054050020A801002060
:10111400880200206803002080B500AFFFF780FF3D
:1011240080BD000080B485B000AF154B9B69144AA4
:1011340043F001039361124B9B6903F00103BB600D
:10114400BB680F4BDB690E4A43F08053D3610C4BF1
:10115400DB6903F080537B607B680A4B5B68FB6050
:10116400FB6823F0E063FB60FB6843F00073FB6003
:10117400044AFB68536000BF1437BD4680BC704707
:10118400001002400000014080B400AF00BFFDE742
:1011940080B400AF00BFFDE780B400AF00BFFDE73F
:1011A40080B400AF00BFFDE780B400AF00BFFDE72F
:1011B40080B400AF00BFBD4680BC704780B400AFB0
:1011C40000BFBD4680BC704780B400AF00BFBD46C1
:1011D40080BC704780B500AF00F0BEFB00BF80BD8F
:1011E40080B500AF024800F0FBFE00BF80BD00BF29
:1011F400E005002080B500AF024800F0F1FE00BF1A
:1012040080BD00BF9C05002080B500AF202001F008
:101214002DFB402001F02AFB802001F027FB00BFBA
:1012240080BD000080B500AF024802F001F900BFA4
:1012340080BD00BFC404002080B500AF024803F0A5
:1012440037F800BF80BD00BF5405002080B500AF53
:101254004FF4806001F00AFB4FF4006001F006FBDC
:101264004FF4805001F002FB00BF80BD80B400AF9A
:1012740000BFBD4680BC704780B592B000AF07F197
:10128400400300221A605A6007F1240300221A6006
:101294005A609A60DA601A615A619A613B1D202291
:1012A4000021184605F0FDFB3F4B404A1A603E4BB7
:1012B40007225A603C4B00229A603B4B40F2E732D3
:1012C400DA60394B00221A61374B00225A61364BDF
:1012D40000229A61344801F0A1FF0346002B01D09B
:1012E400FFF798FE00233B6400237B6407F140036F
:1012F40019462D4802F026FE0346002B01D0FFF7C5
:1013040089FE60237B620023BB620023FB6200230F
:101314003B6300237B630023BB630023FB6307F170
:10132400240300221946204802F072F90346002BD8
:1013340001D0FFF76FFE07F12403042219461A486F
:1013440002F066F90346002B01D0FFF763FE07F1B4
:10135400240308221946144802F05AF90346002BC4
:1013640001D0FFF757FE00237B600023BB600023FE
:10137400FB6000233B6100237B614FF40053BB619E
:1013840000233B623B1D1946074802F047FE034613
:10139400002B01D0FFF73EFE034800F047F900BFE1
:1013A4004837BD4680BD00BF7C040020002C0140AE
:1013B40080B586B000AF07F1080300221A605A60B6
:1013C4009A60DA603B4600221A605A601D4B4FF067
:1013D40080421A601B4B27225A601A4B00229A60E3
:1013E400184B40F2E732DA60164B00221A61154BB3
:1013F40000229A61134801F061FE0346002B01D0DC
:10140400FFF708FE4FF48053BB6007F10803194649
:101414000C4802F0BFF90346002B01D0FFF7FAFD98
:1014240000233B6000237B603B461946054802F0DD
:1014340089FD0346002B01D0FFF7ECFD00BF1837F0
:10144400BD4680BDC404002080B592B000AF07F152
:10145400400300221A605A6007F1240300221A6034
:101464005A609A60DA601A615A619A613B1D2022BF
:101474000021184605F015FB3F4B404A1A603E4BCD
:1014840007225A603C4B00229A603B4B40F2E73201
:10149400DA60394B00221A61374B00225A61364B0D
:1014A40000229A61344801F0B9FE0346002B01D0B2
:1014B400FFF7B0FD00233B6400237B6407F1400386
:1014C40019462D4802F03EFD0346002B01D0FFF7DC
:1014D400A1FD60237B620023BB620023FB62002327
:1014E4003B6300237B630023BB630023FB6307F19F
:1014F400240300221946204802F08AF80346002BF0
:1015040001D0FFF787FD07F12403042219461A4886
:1015140002F07EF80346002B01D0FFF77BFD07F1B4
:10152400240308221946144802F072F80346002BDB
:1015340001D0FFF76FFD00237B600023BB60002315
:10154400FB6000233B6100237B614FF40053BB61CC
:1015540000233B623B1D1946074802F05FFD03462A
:10156400002B01D0FFF756FD034800F05FF800BFE1
:101574004837BD4680BD00BF0C0500200034014043
:1015840080B485B000AF78607B681B68124A9342D0
:101594000CD1124B9B69114A43F4006393610F4BC6
:1015A4009B6903F40063FB60FB6810E07B681B68C5
:1015B4000B4A93420BD1094B9B69084A43F40053ED
:1015C4009361064B9B6903F40053BB60BB6800BF87
:1015D4001437BD4680BC7047002C01400010024007
:1015E4000034014080B584B000AF78607B681B682C
:1015F400B3F1804F13D10C4BDB690B4A43F0010369
:10160400D361094BDB6903F00103FB60FB68002233
:1016140000211C2000F093FA1C2000F0ACFA00BF5B
:101624001037BD4680BD00BF0010024080B588B0B1
:1016340000AF786007F1100300221A605A609A60C4
:10164400DA607B681B681F4A934219D11E4B9B6961
:101654001D4A43F0040393611B4B9B6903F004038D
:10166400FB60FB684FF4E0633B6102237B61022370
:10167400FB6107F110031946144800F01BFF1DE03D
:101684007B681B68124A934218D10F4B9B690E4A20
:1016940043F0100393610C4B9B6903F01003BB6090
:1016A400BB684FF4E0733B6102237B610223FB615F
:1016B40007F110031946074800F0FCFE00BF20376D
:1016C400BD4680BD002C01400010024000080140CE
:1016D400003401400010014080B500AF114B124AA4
:1016E4001A60104B4FF4E1325A600E4B00229A609C
:1016F4000C4B0022DA600B4B00221A61094B0C22BE
:101704005A61084B00229A61064B0022DA610548AF
:1017140002F0E7FC0346002B01D0FFF77BFC00BF7F
:1017240080BD00BF540500200048004080B588B04B
:1017340000AF786007F1100300221A605A609A60C3
:10174400DA607B681B68474A934240F08680464BC8
:10175400DB69454A43F48023D361434BDB6903F4DB
:101764008023FB60FB68404B9B693F4A43F00803BE
:1017740093613D4B9B6903F00803BB60BB684FF466
:1017840080633B6102237B610323FB6107F1100348
:101794001946364800F08EFE4FF400633B61002387
:1017A4007B610023BB6107F1100319462F4800F049
:1017B40081FE2F4B2F4A1A602D4B00225A602C4B6E
:1017C40000229A602A4B8022DA60294B00221A6197
:1017D400274B00225A61264B20229A61244B002277
:1017E400DA61234800F0E2F90346002B01D0FFF749
:1017F40011FC7B681E4ADA631D4A7B6853621E4BE8
:101804001E4A1A601C4B10225A601B4B00229A601D
:10181400194B8022DA60184B00221A61164B002201
:101824005A61154B00229A61134B0022DA61124867
:1018340000F0BCF90346002B01D0FFF7EBFB7B68FB
:101844000D4A9A630C4A7B685362002200212720C8
:1018540000F075F9272000F08EF900BF2037BD464F
:1018640080BD00BF0048004000100240000C014051
:101874009C05002030000240E00500201C000240CE
:10188400FFF7F4FC0B480C490C4A002302E0D4583F
:10189400C4500433C4188C42F9D3094A094C0023B8
:1018A40001E013600432A242FBD305F003F9FFF711
:1018B400B7F87047000000200C000020C46C00083A
:1018C4000C00002044060020FEE7000080B500AFB5
:1018D400084B1B68074A43F010031360032000F011
:1018E40023F90F2000F008F8FFF71CFC002318462A
:1018F40080BD00BF0020024080B582B000AF786098
:10190400124B1A68124B1B7819464FF47A73B3FBC7
:10191400F1F3B2FBF3F3184600F03BF90346002B56
:1019240001D001230EE07B680F2B0AD800227968CE
:101934004FF0FF3000F003F9064A7B681360002380
:1019440000E0012318460837BD4680BD0000002092
:10195400080000200400002080B400AF054B1B7871
:101964001A46054B1B681344034A136000BFBD4667
:1019740080BC7047080000202406002080B400AF1B
:10198400024B1B681846BD4680BC704724060020E5
:1019940080B485B000AF78607B6803F00703FB6018
:1019A4000C4BDB68BB60BA684FF6FF031340BB60A7
:1019B400FB681A02BB68134343F0BF6343F400336C
:1019C400BB60044ABB68D36000BF1437BD4680BC0B
:1019D400704700BF00ED00E080B400AF044BDB684B
:1019E4001B0A03F007031846BD4680BC704700BFBE
:1019F40000ED00E080B483B000AF0346FB7197F9BB
:101A04000730002B0BDBFB7903F01F02064997F923
:101A140007305B09012000FA02F241F8232000BFDD
:101A24000C37BD4680BC704700E100E080B483B051
:101A340000AF03463960FB7197F90730002B0ADBCE
:101A44003B68DAB20C4997F907301201D2B20B4461
:101A540083F800230AE03B68DAB20849FB7903F013
:101A64000F03043B1201D2B20B441A7600BF0C37A9
:101A7400BD4680BC704700BF00E100E000ED00E01F
:101A840080B489B000AFF860B9607A60FB6803F095
:101A94000703FB61FB69C3F10703042B28BF04237D
:101AA400BB61FB690433062B02D9FB69033B00E0ED
:101AB40000237B614FF0FF32BB6902FA03F3DA4380
:101AC400BB681A407B699A404FF0FF317B6901FA89
:101AD40003F3D9437B680B40134318462437BD46B0
:101AE40080BC704780B582B000AF78607B68013BF2
:101AF400B3F1807F01D301230FE00A4A7B68013BE5
:101B040053600F214FF0FF30FFF790FF054B002289
:101B14009A60044B07221A60002318460837BD4612
:101B240080BD00BF10E000E080B582B000AF7860F7
:101B34007868FFF72DFF00BF0837BD4680BD80B52C
:101B440086B000AF0346B9607A60FB7300237B6103
:101B5400FFF742FF78617A68B9687869FFF790FF08
:101B6400024697F90F3011461846FFF75FFF00BF92
:101B74001837BD4680BD80B582B000AF0346FB7107
:101B840097F907301846FFF735FF00BF0837BD4601
:101B940080BD80B582B000AF78607868FFF7A2FF9F
:101BA400034618460837BD4680BD000080B485B0A2
:101BB40000AF78600023FB607B68002B01D1012318
:101BC40059E07B681B681A462D4B9A420FD87B68F4
:101BD4001B681A462B4B13442B4AA2FB03231B09F5
:101BE4009A007B681A647B68284ADA630EE07B6893
:101BF4001B681A46264B1344234AA2FB03231B09E2
:101C04009A007B681A647B68224ADA637B68022242
:101C140083F821207B681B681B68FB60FB6823F446
:101C24007F5323F03003FB607B685A687B689B68B2
:101C34001A437B68DB681A437B681B691A437B6819
:101C44005B691A437B689B691A437B68DB691343AE
:101C5400FA681343FB607B681B68FA681A607B6848
:101C640000229A637B68012283F821207B6800228A
:101C740083F82020002318461437BD4680BC7047E3
:101C840007040240F8FFFDBFCDCCCCCC00000240DD
:101C9400F8FBFDBF0004024080B586B000AFF860D9
:101CA400B9607A603B600023FB75FB6893F82030D1
:101CB400012B01D102234BE0FB68012283F8202091
:101CC400FB6893F82130DBB2012B3AD1FB68022286
:101CD40083F82120FB6800229A63FB681B681A685A
:101CE400FB681B6822F001021A603B687A68B968D5
:101CF400F86800F0B1FBFB68DB6A002B08D0FB68D6
:101D04001B681A68FB681B6842F00E021A600FE039
:101D1400FB681B681A68FB681B6822F004021A60DF
:101D2400FB681B681A68FB681B6842F00A021A60A9
:101D3400FB681B681A68FB681B6842F001021A60A2
:101D440005E0FB68002283F820200223FB75FB7D5D
:101D540018461837BD4680BD80B485B000AF7860A2
:101D64000023FB737B6893F82130DBB2022B08D08D
:101D74007B6804229A637B68002283F82020012375
:101D840020E07B681B681A687B681B6822F00E02DF
:101D94001A607B681B681A687B681B6822F0010262
:101DA4001A607B681A6C7B68DB6B012101FA02F212
:101DB4005A607B68012283F821207B68002283F823
:101DC4002020FB7B18461437BD4680BC70470000BA
:101DD40080B584B000AF78600023FB737B6893F810
:101DE4002130DBB2022B05D07B6804229A630123E5
:101DF400FB73D6E07B681B681A687B681B6822F05B
:101E04000E021A607B681B681A687B681B6822F0E4
:101E140001021A607B681B681A46644B9A4258D9BF
:101E24007B681B68624A93424FD07B681B68614A97
:101E3400934248D07B681B685F4A934240D07B68DA
:101E44001B685E4A934238D07B681B685C4A9342A5
:101E540030D07B681B685B4A934228D07B681B6840
:101E6400524A934220D07B681B68574A934219D048
:101E74007B681B68554A934212D07B681B68544A9E
:101E840093420AD07B681B68524A934202D14FF4B2
:101E940080531BE04FF4803318E04FF4807315E057
:101EA400102313E0012311E04FF080730EE04FF490
:101EB40080130BE04FF4803308E04FF4805305E0C7
:101EC4004FF4807302E0102300E00123424A536080
:101ED40057E07B681B68364A93424FD07B681B6887
:101EE400344A934248D07B681B68334A934240D0BB
:101EF4007B681B68314A934238D07B681B68304A40
:101F0400934230D07B681B682E4A934228D07B686A
:101F14001B68264A934220D07B681B682A4A934256
:101F240019D07B681B68294A934212D07B681B68CE
:101F3400274A93420AD07B681B68264A934202D1FF
:101F44004FF480531BE04FF4803318E04FF4807358
:101F540015E0102313E0012311E04FF080730EE02D
:101F64004FF480130BE04FF4803308E04FF48053B8
:101F740005E04FF4807302E0102300E00123174AC8
:101F840053607B68012283F821207B68002283F858
:101F940020207B685B6B002B03D07B685B6B7868CD
:101FA4009847FB7B18461037BD4680BD8000024031
:101FB400080002401C00024030000240440002407D
:101FC400580002406C000240080402401C04024015
:101FD4003004024044040240000402400000024075
:101FE40080B584B000AF78607B68DB6B1B68FB60F6
:101FF4007B681B681B68BB607B681B6C04229A406F
:10200400FB681340002B00F0F180BB6803F004036D
:10201400002B00F0EB807B681B681B6803F0200337
:10202400002B07D17B681B681A687B681B6822F049
:1020340004021A607B681B681A465F4B9A4258D99F
:102044007B681B685D4A93424FD07B681B685C4A7F
:10205400934248D07B681B685A4A934240D07B68BD
:102064001B68594A934238D07B681B68574A93428D
:1020740030D07B681B68564A934228D07B681B6823
:102084004D4A934220D07B681B68524A934219D030
:102094007B681B68504A934212D07B681B684F4A86
:1020A40093420AD07B681B684D4A934202D14FF495
:1020B40080431BE04FF4802318E04FF4806315E065
:1020C400402313E0042311E04FF080630EE04FF44B
:1020D40080030BE04FF4802308E04FF4804305E0D5
:1020E4004FF4806302E0402300E004233D4A536040
:1020F40057E07B681B68314A93424FD07B681B686A
:102104002F4A934248D07B681B682E4A934240D0A2
:102114007B681B682C4A934238D07B681B682B4A27
:10212400934230D07B681B68294A934228D07B684D
:102134001B68214A934220D07B681B68254A93423E
:1021440019D07B681B68244A934212D07B681B68B1
:10215400224A93420AD07B681B68214A934202D1E7
:102164004FF480431BE04FF4802318E04FF4806366
:1021740015E0402313E0042311E04FF080630EE0E8
:102184004FF480030BE04FF4802308E04FF48043C6
:1021940005E04FF4806302E0402300E00423124A88
:1021A40053607B68DB6A002B00F036817B68DB6A56
:1021B4007868984730E100BF800002400800024080
:1021C4001C0002403000024044000240580002401B
:1021D4006C000240080402401C0402403004024027
:1021E4004404024000040240000002407B681B6C6F
:1021F40002229A40FB681340002B00F0DD80BB688C
:1022040003F00203002B00F0D7807B681B681B6877
:1022140003F02003002B0BD17B681B681A687B68D2
:102224001B6822F00A021A607B68012283F82120CD
:102234007B681B681A467B4B9A4258D97B681B689B
:10224400794A93424FD07B681B68784A934248D0BE
:102254007B681B68764A934240D07B681B68754A4A
:10226400934238D07B681B68734A934230D07B68B2
:102274001B68724A934228D07B681B68694A934260
:1022840020D07B681B686E4A934219D07B681B6818
:102294006C4A934212D07B681B686B4A93420AD003
:1022A4007B681B68694A934202D14FF400531BE0D8
:1022B4004FF4003318E04FF4007315E0202313E0CB
:1022C400022311E04FF000730EE04FF400130BE013
:1022D4004FF4003308E04FF4005305E04FF400736B
:1022E40002E0202300E00223594A536057E07B6850
:1022F4001B684D4A93424FD07B681B684B4A9342FC
:1023040048D07B681B684A4A934240D07B681B686C
:10231400484A934238D07B681B68474A934230D07E
:102324007B681B68454A934228D07B681B683D4AFA
:10233400934220D07B681B68414A934219D07B6842
:102344001B68404A934212D07B681B683E4A934202
:102354000AD07B681B683D4A934202D14FF4005374
:102364001BE04FF4003318E04FF4007315E0202312
:1023740013E0022311E04FF000730EE04FF400135A
:102384000BE04FF4003308E04FF4005305E04FF442
:10239400007302E0202300E002232E4A53607B688E
:1023A400002283F820207B689B6A002B34D07B6852
:1023B4009B6A786898472FE07B681B6C08229A40D8
:1023C400FB681340002B28D0BB6803F00803002BE4
:1023D40023D07B681B681A687B681B6822F00E0296
:1023E4001A607B681A6C7B68DB6B012101FA02F2CC
:1023F4005A607B6801229A637B68012283F821205A
:102404007B68002283F820207B681B6B002B04D0A0
:102414007B681B6B7868984700BF00BF1037BD46C8
:1024240080BD00BF80000240080002401C00024042
:102434003000024044000240580002406C00024058
:10244400080402401C0402403004024044040240D8
:10245400000402400000024080B485B000AFF86080
:10246400B9607A603B60FB681A6CFB68DB6B012126
:1024740001FA02F25A60FB681B683A685A60FB680A
:102484005B68102B08D1FB681B687A689A60FB684C
:102494001B68BA68DA6007E0FB681B68BA689A6070
:1024A400FB681B687A68DA6000BF1437BD4680BCDD
:1024B4007047000080B48BB000AF786039600023AF
:1024C4007B6200233B6279E101227B6A02FA03F317
:1024D400FB613B681B68FA691340BB61BA69FB691D
:1024E4009A4240F068813B685B68964A93425ED0AA
:1024F400944A934275D8944A934258D0924A93424C
:102504006FD8924A934252D0904A934269D8904AE3
:1025140093424CD08E4A934263D88E4A934246D01B
:102524008C4A93425DD8122B2AD8122B59D801A277
:1025340052F823F0B32500088D2500089F250008D4
:10254400E1250008E7250008E7250008E72500083D
:10255400E7250008E7250008E7250008E725000827
:10256400E7250008E7250008E7250008E725000817
:10257400E7250008E725000895250008A925000897
:10258400754A934213D02CE03B68DB683B6229E038
:102594003B68DB6804333B6224E03B68DB68083358
:1025A4003B621FE03B68DB680C333B621AE03B682C
:1025B4009B68002B02D104233B6213E03B689B68B9
:1025C400012B05D108233B627B68FA691A6109E093
:1025D40008233B627B68FA695A6103E000233B628B
:1025E40000E000BFBB69FF2B01D87B6801E07B687A
:1025F40004337B61BB69FF2B02D87B6A9B0002E03A
:102604007B6A083B9B003B617B691A680F213B692D
:1026140001FA03F3DB431A40396A3B6901FA03F315
:102624001A437B691A603B685B6803F08053002B94
:1026340000F0C180494B9B69484A43F00103936110
:10264400464B9B6903F00103BB60BB68444A7B6A49
:102654009B08023352F82330FB607B6A03F00303C8
:102664009B000F2202FA03F3DB43FA681340FB607A
:102674007B683C4A93421FD07B683B4A934219D003
:102684007B683A4A934213D07B68394A93420DD00F
:102694007B68384A934207D07B68374A934201D11A
:1026A40005230AE0062308E0042306E0032304E0EC
:1026B400022302E0012300E000237A6A02F003020D
:1026C40092009340FA681343FB6025497B6A9B0898
:1026D4000233FA6841F823203B685B6803F48013F3
:1026E400002B06D0254B9A682449BB6913438B60A1
:1026F40006E0224B9A68BB69DB43204913408B6098
:102704003B685B6803F40013002B06D01B4BDA68AC
:102714001A49BB691343CB6006E0184BDA68BB69FE
:10272400DB4316491340CB603B685B6803F400331A
:10273400002B25D0114B5A681049BB6913434B60D9
:1027440025E000BF0000321000003110000022100C
:1027540000002110000012100000111000100240AF
:102764000000014000080140000C0140001001403D
:102774000014014000180140001C01400004014005
:10278400154B5A68BB69DB43134913404B603B68E4
:102794005B6803F48033002B06D00F4B1A680E4994
:1027A400BB6913430B6006E00B4B1A68BB69DB4340
:1027B400094913400B607B6A01337B623B681A68EA
:1027C4007B6A22FA03F3002B7FF47EAE00BF00BFC6
:1027D4002C37BD4680BC70470004014080B485B0EE
:1027E40000AF78600B467B807B689A687B881340D7
:1027F400002B02D00123FB7301E00023FB73FB7B5E
:1028040018461437BD4680BC704780B483B000AF0F
:1028140078600B467B8013467B707B78002B03D05B
:102824007A887B681A6103E07B881A047B681A61E2
:1028340000BF0C37BD4680BC704780B485B000AF84
:1028440078600B467B807B68DB68FB607A88FB687A
:1028540013401A04FB68D9437B880B401A437B68F6
:102864001A6100BF1437BD4680BC704780B582B082
:1028740000AF0346FB80084B5A69FB881340002BCA
:1028840006D0054AFB885361FB881846FEF7F4FA24
:1028940000BF0837BD4680BD0004014080B586B046
:1028A40000AF78607B68002B01D1012372E27B6862
:1028B4001B6803F00103002B00F08780924B5B68D8
:1028C40003F00C03042B0CD08F4B5B6803F00C0358
:1028D400082B12D18C4B5B6803F48033B3F5803F33
:1028E4000BD1894B1B6803F40033002B6CD07B683D
:1028F4005B68002B68D101234CE27B685B68B3F50D
:10290400803F06D1804B1B687F4A43F480331360B9
:102914002EE07B685B68002B0CD17B4B1B687A4AEA
:1029240023F480331360784B1B68774A23F48023A5
:1029340013601DE07B685B68B3F5A02F0CD1724B6C
:102944001B68714A43F4802313606F4B1B686E4A03
:1029540043F4803313600BE06B4B1B686A4A23F427
:1029640080331360684B1B68674A23F48023136029
:102974007B685B68002B13D0FFF700F8386108E030
:10298400FEF7FCFF02463B69D31A642B01D90323EB
:1029940000E25D4B1B6803F40033002BF0D014E01D
:1029A400FEF7ECFF386108E0FEF7E8FF02463B69FA
:1029B400D31A642B01D90323ECE1534B1B6803F4B2
:1029C4000033002BF0D100E000BF7B681B6803F0EC
:1029D4000203002B63D04C4B5B6803F00C03002B09
:1029E4000BD0494B5B6803F00C03082B1CD1464BFE
:1029F4005B6803F48033002B16D1434B1B6803F050
:102A04000203002B05D07B681B69012B01D0012335
:102A1400C0E13D4B1B6823F0F8027B685B69DB0077
:102A2400394913430B603AE07B681B69002B20D0C3
:102A3400364B01221A60FEF7A1FF386108E0FEF769
:102A44009DFF02463B69D31A022B01D90323A1E15E
:102A54002D4B1B6803F00203002BF0D02A4B1B689C
:102A640023F0F8027B685B69DB00274913430B60A2
:102A740015E0264B00221A60FEF780FF386108E05B
:102A8400FEF77CFF02463B69D31A022B01D90323CC
:102A940080E11D4B1B6803F00203002BF0D17B681F
:102AA4001B6803F00803002B3AD07B689B69002B5A
:102AB40019D0174B01221A60FEF760FF386108E055
:102AC400FEF75CFF02463B69D31A022B01D90323AC
:102AD40060E10D4B5B6A03F00203002BF0D0012090
:102AE40000F0CEFA1CE00A4B00221A60FEF746FF03
:102AF40038610FE0FEF742FF02463B69D31A022B0E
:102B040008D9032346E100BF0010024000004242FE
:102B140080044242924B5B6A03F00203002BE9D12A
:102B24007B681B6803F00403002B00F0A6800023DD
:102B3400FB758B4BDB6903F08053002B0DD1884B65
:102B4400DB69874A43F08053D361854BDB6903F02B
:102B54008053BB60BB680123FB75824B1B6803F485
:102B64008073002B18D17F4B1B687E4A43F480731B
:102B74001360FEF703FF386108E0FEF7FFFE02462C
:102B84003B69D31A642B01D9032303E1754B1B68FA
:102B940003F48073002BF0D07B68DB68012B06D133
:102BA4006F4B1B6A6E4A43F0010313622DE07B688E
:102BB400DB68002B0CD16A4B1B6A694A23F00103C2
:102BC4001362674B1B6A664A23F0040313621CE01A
:102BD4007B68DB68052B0CD1614B1B6A604A43F0B0
:102BE400040313625E4B1B6A5D4A43F001031362E4
:102BF4000BE05B4B1B6A5A4A23F001031362584BE8
:102C04001B6A574A23F0040313627B68DB68002BBA
:102C140015D0FEF7B3FE38610AE0FEF7AFFE0246B8
:102C24003B69D31A41F28832934201D90323B1E0BC
:102C34004B4B1B6A03F00203002BEED014E0FEF7AB
:102C44009DFE38610AE0FEF799FE02463B69D31AFD
:102C540041F28832934201D903239BE0404B1B6A23
:102C640003F00203002BEED1FB7D012B05D13C4B7D
:102C7400DB693B4A23F08053D3617B68DB69002B1B
:102C840000F08780364B5B6803F00C03082B61D09F
:102C94007B68DB69022B46D1334B00221A60FEF7B6
:102CA4006DFE386108E0FEF769FE02463B69D31AFF
:102CB400022B01D903236DE0294B1B6803F0007339
:102CC400002BF0D17B681B6AB3F5803F08D1244BFD
:102CD4005B6823F400327B689B68214913434B6093
:102CE4001F4B5B6823F474127B68196A7B685B6A08
:102CF4000B431B4913434B601B4B01221A60FEF725
:102D04003DFE386108E0FEF739FE02463B69D31AFE
:102D1400022B01D903233DE0114B1B6803F0007320
:102D2400002BF0D035E0104B00221A60FEF726FE8F
:102D3400386108E0FEF722FE02463B69D31A022BF3
:102D440001D9032326E0064B1B6803F00073002B14
:102D5400F0D11EE07B68DB69012B07D1012319E068
:102D64000010024000700040600042420B4B5B6860
:102D7400FB60FB6803F480327B681B6A9A4206D1CD
:102D8400FB6803F470127B685B6A9A4201D00123EA
:102D940000E0002318461837BD4680BD00100240ED
:102DA40080B584B000AF786039607B68002B01D1B6
:102DB4000123D0E06A4B1B6803F007033A689A4288
:102DC40010D9674B1B6823F0070265493B6813431E
:102DD4000B60634B1B6803F007033A689A4201D007
:102DE4000123B8E07B681B6803F00203002B20D0AA
:102DF4007B681B6803F00403002B05D0594B5B6808
:102E0400584A43F4E06353607B681B6803F008038B
:102E1400002B05D0534B5B68524A43F46053536014
:102E2400504B5B6823F0F0027B689B684D49134369
:102E34004B607B681B6803F00103002B40D07B6868
:102E44005B68012B07D1474B1B6803F40033002B4D
:102E540015D101237FE07B685B68022B07D1414BCE
:102E64001B6803F00073002B09D1012373E03D4B71
:102E74001B6803F00203002B01D101236BE0394BE3
:102E84005B6823F003027B685B68364913434B603D
:102E9400FEF774FDF8600AE0FEF770FD0246FB6879
:102EA400D31A41F28832934201D9032353E02D4BC4
:102EB4005B6803F00C027B685B689B009A42EBD171
:102EC400274B1B6803F007033A689A4210D2244B3D
:102ED4001B6823F0070222493B6813430B60204B15
:102EE4001B6803F007033A689A4201D0012332E0D9
:102EF4007B681B6803F00403002B08D0194B5B6844
:102F040023F4E0627B68DB68164913434B607B68FB
:102F14001B6803F00803002B09D0124B5B6823F4F1
:102F240060527B681B69DB000E4913434B6000F061
:102F340021F802460B4B5B681B0903F00F030A4997
:102F4400CB5C22FA03F3094A1360094B1B68184649
:102F5400FEF7D2FC002318461037BD4680BD00BFE3
:102F640000200240001002408C6C00080000002089
:102F74000400002080B487B000AF0023FB6000236E
:102F8400BB6000237B6100237B6000233B611E4BFD
:102F94005B68FB60FB6803F00C03042B02D0082B76
:102FA40003D027E0194B3B6127E0FB689B0C03F03F
:102FB4000F03174AD35C7B60FB6803F48033002B58
:102FC40010D0114B5B685B0C03F00103114AD35C16
:102FD400BB607B680D4A03FB02F2BB68B2FBF3F3F0
:102FE4007B6104E07B680C4A02FB03F37B617B6931
:102FF4003B6102E0054B3B6100BF3B6918461C374F
:10300400BD4680BC704700BF0010024000127A0029
:10301400A46C0008B46C000800093D0080B400AF43
:10302400024B1B681846BD4680BC70470000002058
:1030340080B500AFFFF7F2FF0246054B5B681B0A41
:1030440003F007030349CB5C22FA03F3184680BD5F
:10305400001002409C6C000880B500AFFFF7DEFF53
:103064000246054B5B68DB0A03F007030349CB5CAC
:1030740022FA03F3184680BD001002409C6C00083D
:1030840080B485B000AF78600A4B1B680A4AA2FB83
:1030940003235B0A7A6802FB03F3FB6000BFFB684F
:1030A4005A1EFA60002BF9D100BF00BF1437BD4689
:1030B40080BC704700000020D34D621080B582B000
:1030C40000AF78607B68002B01D1012341E07B686D
:1030D40093F83D30DBB2002B06D17B68002283F8E5
:1030E4003C207868FEF77EFA7B68022283F83D2054
:1030F4007B681A687B6804331946104600F036FC76
:103104007B68012283F846207B68012283F83E20F5
:103114007B68012283F83F207B68012283F84020EA
:103124007B68012283F841207B68012283F84220D6
:103134007B68012283F843207B68012283F84420C2
:103144007B68012283F845207B68012283F83D20B7
:10315400002318460837BD4680BD000080B485B002
:1031640000AF78607B6893F83D30DBB2012B01D06F
:10317400012344E07B68022283F83D207B681B68BE
:10318400DA687B681B6842F00102DA607B681B68BE
:103194001D4A934218D07B681B681C4A934213D083
:1031A4007B681B68B3F1804F0ED07B681B68184A9C
:1031B400934209D07B681B68164A934204D07B680B
:1031C4001B68154A934211D17B681B689B6803F006
:1031D4000703FB60FB68062B10D07B681B681A682A
:1031E4007B681B6842F001021A6007E07B681B6879
:1031F4001A687B681B6842F001021A6000231846B3
:103204001437BD4680BC7047002C01400034014097
:103214000004004000080040000C004080B582B06B
:1032240000AF78607B68002B01D1012341E07B680B
:1032340093F83D30DBB2002B06D17B68002283F883
:103244003C207868FEF79CF97B68022283F83D20D5
:103254007B681A687B6804331946104600F086FBC5
:103264007B68012283F846207B68012283F83E2094
:103274007B68012283F83F207B68012283F8402089
:103284007B68012283F841207B68012283F8422075
:103294007B68012283F843207B68012283F8442061
:1032A4007B68012283F845207B68012283F83D2056
:1032B400002318460837BD4680BD000080B584B0A1
:1032C40000AF786039603B68002B09D17B6893F8C4
:1032D4003E30DBB2012B14BF01230023DBB222E01A
:1032E4003B68042B09D17B6893F83F30DBB2012B98
:1032F40014BF01230023DBB215E03B68082B09D17E
:103304007B6893F84030DBB2012B14BF0123002308
:10331400DBB208E07B6893F84130DBB2012B14BFC9
:1033240001230023DBB2002B01D0012372E03B68B0
:10333400002B04D17B68022283F83E2013E03B6813
:10334400042B04D17B68022283F83F200BE03B6806
:10335400082B04D17B68022283F8402003E07B68B9
:10336400022283F841207B681B68012239681846D1
:1033740000F0C4FD7B681B68284A934204D07B6834
:103384001B68274A934201D1012300E00023002B4C
:1033940007D07B681B685A6C7B681B6842F4004248
:1033A4005A647B681B681D4A934218D07B681B686B
:1033B4001B4A934213D07B681B68B3F1804F0ED035
:1033C4007B681B68174A934209D07B681B68164ABE
:1033D400934204D07B681B68144A934211D17B68E2
:1033E4001B689B6803F00703FB60FB68062B10D087
:1033F4007B681B681A687B681B6842F001021A60CC
:1034040007E07B681B681A687B681B6842F001024E
:103414001A60002318461037BD4680BD002C0140B9
:10342400003401400004004000080040000C00404B
:1034340080B584B000AF78607B681B68DB68FB6094
:103444007B681B681B69BB60BB6803F00203002B2D
:1034540020D0FB6803F00203002B1BD07B681B68A1
:103464006FF002021A617B6801221A777B681B687D
:103474009B6903F00303002B03D0786800F05AFA29
:1034840005E0786800F04DFA786800F05CFA7B6833
:1034940000221A77BB6803F00403002B20D0FB68DA
:1034A40003F00403002B1BD07B681B686FF004023D
:1034B4001A617B6802221A777B681B689B6903F494
:1034C4004073002B03D0786800F034FA05E0786884
:1034D40000F027FA786800F036FA7B6800221A7741
:1034E400BB6803F00803002B20D0FB6803F008033B
:1034F400002B1BD07B681B686FF008021A617B6885
:1035040004221A777B681B68DB6903F00303002B32
:1035140003D0786800F00EFA05E0786800F001FA4C
:10352400786800F010FA7B6800221A77BB6803F011
:103534001003002B20D0FB6803F01003002B1BD0DA
:103544007B681B686FF010021A617B6808221A7787
:103554007B681B68DB6903F44073002B03D0786835
:1035640000F0E8F905E0786800F0DBF9786800F02D
:10357400EAF97B6800221A77BB6803F00103002B89
:103584000CD0FB6803F00103002B07D07B681B6899
:103594006FF001021A617868FDF796FCBB6803F0CE
:1035A4008003002B0CD0FB6803F08003002B07D0B2
:1035B4007B681B686FF080021A61786800F088FDF0
:1035C400BB6803F04003002B0CD0FB6803F04003FE
:1035D400002B07D07B681B686FF040021A61786883
:1035E40000F0BAF9BB6803F02003002B0CD0FB6891
:1035F40003F02003002B07D07B681B686FF02002C8
:103604001A61786800F05BFD00BF1037BD4680BDCD
:1036140080B586B000AFF860B9607A600023FB75AE
:10362400FB6893F83C30012B01D10223AEE0FB6828
:10363400012283F83C207B680C2B00F29F8001A2BE
:1036440052F823F07D3600088137000881370008DE
:1036540081370008BD36000881370008813700082B
:1036640081370008FF3600088137000881370008D9
:10367400813700083F370008FB681B68B9681846A3
:1036840000F0FAF9FB681B689A69FB681B6842F052
:1036940008029A61FB681B689A69FB681B6822F040
:1036A40004029A61FB681B689969BB681A69FB6824
:1036B4001B680A439A6164E0FB681B68B968184692
:1036C40000F04AFAFB681B689A69FB681B6842F4BD
:1036D40000629A61FB681B689A69FB681B6822F4A4
:1036E40080629A61FB681B689969BB681B691A024E
:1036F400FB681B680A439A6143E0FB681B68B9686E
:10370400184600F09DFAFB681B68DA69FB681B68C1
:1037140042F00802DA61FB681B68DA69FB681B681F
:1037240022F00402DA61FB681B68D969BB681A6974
:10373400FB681B680A43DA6123E0FB681B68B9680D
:10374400184600F0F1FAFB681B68DA69FB681B682D
:1037540042F40062DA61FB681B68DA69FB681B6883
:1037640022F48062DA61FB681B68D969BB681B6953
:103774001A02FB681B680A43DA6102E00123FB7545
:1037840000BFFB68002283F83C20FB7D18461837F5
:10379400BD4680BD80B584B000AF78603960002339
:1037A400FB737B6893F83C30012B01D10223B4E016
:1037B4007B68012283F83C207B68022283F83D2049
:1037C4007B681B689B68BB60BB6823F07703BB60A6
:1037D400BB6823F47F43BB607B681B68BA689A604C
:1037E4003B681B68B3F5005F3ED0B3F5005F00F2A1
:1037F4008780B3F5805F00F08680B3F5805F7FD863
:10380400702B1AD0702B7BD8602B50D0602B77D8BC
:10381400502B3CD0502B73D8402B58D0402B6FD812
:10382400302B64D0302B6BD8202B60D0202B67D862
:10383400002B5CD0102B5AD062E07B6818683B6880
:1038440099683B685A683B68DB6800F038FB7B6822
:103854001B689B68BB60BB6843F07703BB607B68F5
:103864001B68BA689A604FE07B6818683B6899687F
:103874003B685A683B68DB6800F021FB7B681B6887
:103884009A687B681B6842F480429A603CE07B68DB
:1038940018683B6859683B68DB681A4600F098FA78
:1038A4007B681B685021184600F0EFFA2CE07B6817
:1038B40018683B6859683B68DB681A4600F0B6FA3A
:1038C4007B681B686021184600F0DFFA1CE07B6807
:1038D40018683B6859683B68DB681A4600F078FA58
:1038E4007B681B684021184600F0CFFA0CE07B6827
:1038F4001A683B681B681946104600F0C6FA03E0D4
:103904000123FB7300E000BF7B68012283F83D20A4
:103914007B68002283F83C20FB7B18461037BD46A9
:1039240080BD80B483B000AF786000BF0C37BD4663
:1039340080BC704780B483B000AF786000BF0C37A0
:10394400BD4680BC704780B483B000AF786000BFD0
:103954000C37BD4680BC704780B483B000AF78603C
:1039640000BF0C37BD4680BC7047000080B485B0F2
:1039740000AF786039607B681B68FB607B68394AFC
:10398400934213D07B68384A93420FD07B68B3F1DB
:10399400804F0BD07B68354A934207D07B68344A0A
:1039A400934203D07B68334A934208D1FB6823F0E7
:1039B4007003FB603B685B68FA681343FB607B68D9
:1039C400284A934213D07B68274A93420FD07B68DE
:1039D400B3F1804F0BD07B68244A934207D07B68B5
:1039E400234A934203D07B68224A934208D1FB685E
:1039F40023F44073FB603B68DB68FA681343FB60A5
:103A0400FB6823F080023B685B691343FB607B68BF
:103A1400FA681A603B689A687B68DA623B681A68DD
:103A24007B689A627B680F4A934203D07B680E4A94
:103A3400934203D13B681A697B681A637B6801224D
:103A44005A617B681B6903F00103002B05D07B6876
:103A54001B6923F001027B681A6100BF1437BD465D
:103A640080BC7047002C0140003401400004004039
:103A740000080040000C004080B487B000AF7860BC
:103A840039607B681B6A7B617B681B6A23F00102D7
:103A94007B681A627B685B683B617B689B69FB603F
:103AA400FB6823F07003FB60FB6823F00303FB60F7
:103AB4003B681B68FA681343FB607B6923F00203CD
:103AC4007B613B689B687A6913437B617B68204A0E
:103AD400934203D07B681F4A93420CD17B6923F045
:103AE40008037B613B68DB687A6913437B617B690C
:103AF40023F004037B617B68154A934203D07B68FF
:103B0400144A934211D13B6923F480733B613B69AE
:103B140023F400733B613B685B693A6913433B617F
:103B24003B689B693A6913433B617B683A695A6015
:103B34007B68FA689A613B685A687B685A637B6859
:103B44007A691A6200BF1C37BD4680BC704700BF4B
:103B5400002C01400034014080B487B000AF78608D
:103B640039607B681B6A7B617B681B6A23F01002E7
:103B74007B681A627B685B683B617B689B69FB605E
:103B8400FB6823F4E043FB60FB6823F44073FB60B1
:103B94003B681B681B02FA681343FB607B6923F0D4
:103BA40020037B613B689B681B017A6913437B613B
:103BB4007B68214A934203D07B68204A93420DD10B
:103BC4007B6923F080037B613B68DB681B017A69B6
:103BD40013437B617B6923F040037B617B68164A56
:103BE400934203D07B68154A934213D13B6923F473
:103BF40080633B613B6923F400633B613B685B6921
:103C04009B003A6913433B613B689B699B003A699B
:103C140013433B617B683A695A607B68FA689A612E
:103C24003B685A687B689A637B687A691A6200BF4A
:103C34001C37BD4680BC7047002C01400034014055
:103C440080B487B000AF786039607B681B6A7B61A1
:103C54007B681B6A23F480727B681A627B685B68EA
:103C64003B617B68DB69FB60FB6823F07003FB60EE
:103C7400FB6823F00303FB603B681B68FA6813438B
:103C8400FB607B6923F400737B613B689B681B02C8
:103C94007A6913437B617B68214A934203D07B6832
:103CA400204A93420DD17B6923F400637B613B6816
:103CB400DB681B027A6913437B617B6923F48063AD
:103CC4007B617B68164A934203D07B68154A934212
:103CD40013D13B6923F480533B613B6923F40053C4
:103CE4003B613B685B691B013A6913433B613B6879
:103CF4009B691B013A6913433B617B683A695A60CB
:103D04007B68FA68DA613B685A687B68DA637B68C7
:103D14007A691A6200BF1C37BD4680BC704700BF79
:103D2400002C01400034014080B487B000AF7860BB
:103D340039607B681B6A3B617B681B6A23F4805291
:103D44007B681A627B685B687B617B68DB69FB600C
:103D5400FB6823F4E043FB60FB6823F44073FB60DF
:103D64003B681B681B02FA681343FB603B6923F43E
:103D740000533B613B689B681B033A6913433B61F7
:103D84007B68114A934203D07B68104A934209D15D
:103D94007B6923F480437B613B685B699B017A699F
:103DA40013437B617B687A695A607B68FA68DA61DD
:103DB4003B685A687B681A647B683A691A6200BF78
:103DC4001C37BD4680BC7047002C014000340140C4
:103DD40080B487B000AFF860B9607A60FB681B6A92
:103DE4007B61FB681B6A23F00102FB681A62FB68B3
:103DF4009B693B613B6923F0F0033B617B681B01DA
:103E04003A6913433B617B6923F00A037B617A6956
:103E1400BB6813437B61FB683A699A61FB687A6902
:103E24001A6200BF1C37BD4680BC704780B487B09F
:103E340000AFF860B9607A60FB681B6A7B61FB685D
:103E44001B6A23F01002FB681A62FB689B693B61E2
:103E54003B6923F470433B617B681B033A6913435A
:103E64003B617B6923F0A0037B61BB681B017A691A
:103E740013437B61FB683A699A61FB687A691A6249
:103E840000BF1C37BD4680BC704780B485B000AF0E
:103E9400786039607B689B68FB60FB6823F0700383
:103EA400FB603A68FB68134343F00703FB607B68DD
:103EB400FA689A6000BF1437BD4680BC704780B46E
:103EC40087B000AFF860B9607A603B60FB689B68BC
:103ED4007B617B6923F47F437B613B681A027B68C7
:103EE4001A43BB6813437A6913437B61FB687A699D
:103EF4009A6000BF1C37BD4680BC704780B487B051
:103F040000AFF860B9607A60BB6803F01F03012258
:103F140002FA03F37B61FB681A6A7B69DB431A408C
:103F2400FB681A62FB681A6ABB6803F01F037968AE
:103F340001FA03F31A43FB681A6200BF1C37BD463B
:103F440080BC704780B485B000AF786039607B680E
:103F540093F83C30012B01D1022350E07B6801220D
:103F640083F83C207B68022283F83D207B681B6831
:103F74005B68FB607B681B689B68BB60FB6823F025
:103F84007003FB603B681B68FA681343FB607B6843
:103F94001B68FA685A607B681B681B4A934218D0F6
:103FA4007B681B68194A934213D07B681B68B3F182
:103FB400804F0ED07B681B68154A934209D07B68FA
:103FC4001B68144A934204D07B681B68124A9342CC
:103FD4000CD1BB6823F08003BB603B685B68BA68A4
:103FE4001343BB607B681B68BA689A607B680122D4
:103FF40083F83D207B68002283F83C200023184688
:104004001437BD4680BC7047002C01400034014089
:104014000004004000080040000C004080B485B05B
:1040240000AF786039600023FB607B6893F83C3014
:10403400012B01D102233DE07B68012283F83C205F
:10404400FB6823F0FF023B68DB681343FB60FB68FB
:1040540023F440723B689B681343FB60FB6823F4C2
:1040640080623B685B681343FB60FB6823F4006277
:104074003B681B681343FB60FB6823F480523B6876
:104084001B691343FB60FB6823F400523B685B69C4
:104094001343FB60FB6823F480423B68DB691343F2
:1040A400FB607B681B68FA685A647B68002283F8AB
:1040B4003C20002318461437BD4680BC704780B4AA
:1040C40083B000AF786000BF0C37BD4680BC70473A
:1040D40080B483B000AF786000BF0C37BD4680BCAD
:1040E400704780B582B000AF78607B68002B01D147
:1040F400012342E07B6893F84130DBB2002B06D108
:104104007B68002283F840207868FDF70FFB7B680A
:10411400242283F841207B681B68DA687B681B686B
:1041240022F40052DA60786800F038FF7B681B687C
:104134001A697B681B6822F490421A617B681B68C9
:104144005A697B681B6822F02A025A617B681B68E3
:10415400DA687B681B6842F40052DA607B680022EC
:104164005A647B68202283F841207B68202283F8EC
:1041740042207B6800225A63002318460837BD4654
:1041840080BD000080B58CB000AFF860B960134604
:10419400FB80FB6893F84130DBB2202B56D1BB681F
:1041A400002B02D0FB88002B01D101234FE0BA6819
:1041B400FB681A62FB68FA889A84FB68FA88DA84D6
:1041C400FB6800225A64FB68212283F84120FB68C3
:1041D4009B6B214A9A62FB689B6B204ADA62FB68FC
:1041E4009B6B1F4A1A63FB689B6B00225A6307F19F
:1041F4000803FB62FB68986BFB6A1968FB681B6821
:1042040004331A46FB88FDF747FDFB681B686FF013
:1042140040021A60FB681B681433BB61BB6953E836
:10422400003F7B617B6943F08003BB62FB681B68D2
:104234001433BA6A7A623B62396A7A6A41E80023C3
:10424400FB61FB69002BE5D1002300E00223184643
:104254003037BD4680BD00BF37480008D14800084C
:10426400554A000880B584B000AFF860B9601346C1
:10427400FB80FB6893F84230DBB2202B12D1BB6881
:10428400002B02D0FB88002B01D101230BE0FB683B
:1042940000221A63FB881A46B968F86800F022FC09
:1042A400034600E0022318461037BD4680BD0000D7
:1042B40080B5BAB000AF78607B681B681B68C7F82C
:1042C400E4307B681B68DB68C7F8E0307B681B68F8
:1042D4005B69C7F8DC300023C7F8D8300023C7F87F
:1042E400D430D7F8E43003F00F03C7F8D830D7F848
:1042F400D830002B0FD1D7F8E43003F02003002B83
:1043040009D0D7F8E03003F02003002B03D07868FD
:1043140000F086FD5BE2D7F8D830002B00F0DE8099
:10432400D7F8DC3003F00103002B06D1D7F8E030D6
:1043340003F49073002B00F0D180D7F8E43003F03D
:104344000103002B0BD0D7F8E03003F48073002B6B
:1043540005D07B685B6C43F001027B685A64D7F834
:10436400E43003F00403002B0BD0D7F8DC3003F067
:104374000103002B05D07B685B6C43F002027B6871
:104384005A64D7F8E43003F00203002B0BD0D7F8BB
:10439400DC3003F00103002B05D07B685B6C43F039
:1043A40004027B685A64D7F8E43003F00803002B56
:1043B40011D0D7F8E03003F02003002B05D1D7F853
:1043C400DC3003F00103002B05D07B685B6C43F009
:1043D40008027B685A647B685B6C002B00F0F281F6
:1043E400D7F8E43003F02003002B08D0D7F8E030EE
:1043F40003F02003002B02D0786800F011FD7B68E5
:104404001B685B6903F04003002B14BF01230023E6
:10441400DBB2C7F8D4307B685B6C03F00803002B75
:1044240003D1D7F8D430002B4FD0786800F01BFCB0
:104434007B681B685B6903F04003002B41D07B68F9
:104444001B681433C7F89C30D7F89C3053E8003FFE
:10445400C7F89830D7F8983023F04003C7F8D03025
:104464007B681B681433D7F8D020C7F8A820C7F896
:10447400A430D7F8A410D7F8A82041E80023C7F83F
:10448400A030D7F8A030002BD9D17B68DB6B002B90
:1044940013D07B68DB6B7E4A5A637B68DB6B184600
:1044A400FDF796FC0346002B16D07B68DB6B5B6B39
:1044B4007A68D26B104698470EE0786800F0A5F948
:1044C4000AE0786800F0A1F906E0786800F09DF948
:1044D4007B6800225A6475E100BF73E17B681B6B43
:1044E400012B40F04F81D7F8E43003F01003002B88
:1044F40000F04881D7F8E03003F01003002B00F0FF
:1045040041810023BB607B681B681B68BB607B68C0
:104514001B685B68BB60BB687B681B685B6903F0F6
:104524004003002B00F0B6807B68DB6B1B685B6884
:10453400A7F8BE30B7F8BE30002B00F045817B6889
:104544009B8DB7F8BE209A4280F03E817B68B7F815
:10455400BE20DA857B68DB6B9B69202B00F08880AA
:104564007B681B680C33C7F88830D7F8883053E869
:10457400003FC7F88430D7F8843023F48073C7F839
:10458400B8307B681B680C33D7F8B820C7F8942080
:10459400C7F89030D7F89010D7F8942041E800235A
:1045A400C7F88C30D7F88C30002BD9D17B681B68C6
:1045B40014337B677B6F53E8003F3B673B6F23F00B
:1045C4000103C7F8B4307B681B681433D7F8B420F0
:1045D400C7F88020FB67F96FD7F8802041E80023F3
:1045E400BB67BB6F002BE1D17B681B6814333B6650
:1045F4003B6E53E8003FFB65FB6D23F04003C7F8B7
:10460400B0307B681B681433D7F8B020FA66BB66F9
:10461400B96EFA6E41E800237B667B6E002BE3D112
:104624007B68202283F842207B6800221A637B681F
:104634001B680C33FB64FB6C53E8003FBB64BB6C2E
:1046440023F01003C7F8AC307B681B680C33D7F831
:10465400AC20BA657B65796DBA6D41E800233B6592
:104664003B6D002BE3D17B68DB6B1846FDF774FBD5
:104674007B6802225A637B689A8D7B68DB8D9BB2D0
:10468400D31A9BB21946786800F0C8F89CE000BFC2
:104694002F4D00087B689A8D7B68DB8D9BB2D31A03
:1046A400A7F8CE307B68DB8D9BB2002B00F08E80A8
:1046B400B7F8CE30002B00F089807B681B680C3380
:1046C400BB63BB6B53E8003F7B637B6B23F490734A
:1046D400C7F8C8307B681B680C33D7F8C8207A64E5
:1046E4003B64396C7A6C41E80023FB63FB6B002B61
:1046F400E3D17B681B6814337B627B6A53E8003F19
:104704003B623B6A23F00103C7F8C4307B681B6833
:104714001433D7F8C4203A63FB62F96A3A6B41E870
:104724000023BB62BB6A002BE3D17B68202283F8A1
:1047340042207B6800221A637B681B680C333B6150
:104744003B6953E8003FFB60FB6823F01003C7F8A4
:10475400C0307B681B680C33D7F8C020FA61BB619A
:10476400B969FA6941E800237B617B69002BE3D1D5
:104774007B6802225A63B7F8CE301946786800F095
:104784004DF823E0D7F8E43003F08003002B09D080
:10479400D7F8E03003F08003002B03D0786800F0F2
:1047A400D8FA14E0D7F8E43003F04003002B0ED01D
:1047B400D7F8E03003F04003002B08D0786800F00D
:1047C40017FB04E000BF02E000BF00E000BFE837D1
:1047D400BD4680BD80B483B000AF786000BF0C37A5
:1047E400BD4680BC704780B483B000AF786000BF22
:1047F4000C37BD4680BC704780B483B000AF78608E
:1048040000BF0C37BD4680BC704780B483B000AF96
:10481400786000BF0C37BD4680BC704780B483B05D
:1048240000AF78600B467B8000BF0C37BD4680BC70
:10483400704780B590B000AF78607B685B6AFB63BB
:104844007B681B681B6803F02003002B37D1FB6BCC
:104854000022DA84FB6B1B6814337B627B6A53E8A7
:10486400003F3B623B6A23F08003BB63FB6B1B6826
:104874001433BA6B3A63FB62F96A3A6B41E800237A
:10488400BB62BB6A002BE5D1FB6B1B680C333B613D
:104894003B6953E8003FFB60FB6843F040037B63E4
:1048A400FB6B1B680C337A6BFA61BB61B969FA69FB
:1048B40041E800237B617B69002BE5D102E0F86BC2
:1048C400FFF788FF00BF4037BD4680BD80B584B088
:1048D40000AF78607B685B6AFB60F868FFF783FF72
:1048E40000BF1037BD4680BD80B59CB000AF786076
:1048F4007B685B6AFB667B681B681B6803F02003AC
:10490400002B72D1FB6E0022DA85FB6E1B680C3320
:10491400FB64FB6C53E8003FBB64BB6C23F4807303
:10492400BB66FB6E1B680C33BA6EBA657B65796D2A
:10493400BA6D41E800233B653B6D002BE5D1FB6E6E
:104944001B681433BB63BB6B53E8003F7B637B6B17
:1049540023F001037B66FB6E1B6814337A6E7A6462
:104964003B64396C7A6C41E80023FB63FB6B002BDE
:10497400E5D1FB6E1B6814337B627B6A53E8003F0E
:104984003B623B6A23F040033B66FB6E1B681433B7
:104994003A6E3A63FB62F96A3A6B41E80023BB6200
:1049A400BB6A002BE5D1FB6E202283F84220FB6E0C
:1049B4001B6B012B19D1FB6E1B680C333B613B69EC
:1049C40053E8003FFB60FB6823F01003FB65FB6EBC
:1049D4001B680C33FA6DFA61BB61B969FA6941E885
:1049E40000237B617B69002BE5D1FB6E00225A63B7
:1049F400FB6E1B6B012B06D1FB6E9B8D1946F86E6B
:104A0400FFF70CFF02E0F86EFCF7E8FA00BF70371E
:104A1400BD4680BD80B584B000AF78607B685B6ABA
:104A2400FB60FB6801225A63FB681B6B012B08D1F6
:104A3400FB689B8D5B089BB21946F868FFF7EEFE96
:104A440002E0F868FFF7D8FE00BF1037BD4680BD0E
:104A540080B584B000AF78600023FB607B685B6A3C
:104A6400BB60BB681B685B6903F08003002B14BF49
:104A740001230023DBB2FB60BB6893F84130DBB257
:104A8400212B08D1FB68002B05D0BB680022DA84F7
:104A9400B86800F0C1F8BB681B685B6903F04003A9
:104AA400002B14BF01230023DBB2FB60BB6893F827
:104AB4004230DBB2222B08D1FB68002B05D0BB6847
:104AC4000022DA85B86800F0CEF8BB685B6C43F06E
:104AD4001002BB685A64B868FFF797FE00BF10372E
:104AE400BD4680BD80B598B000AFF860B96013468C
:104AF400FB80BA68FB689A62FB68FA889A85FB684F
:104B040000225A64FB68222283F84220FB68DB6B94
:104B14003E4A9A62FB68DB6B3D4ADA62FB68DB6BF8
:104B24003C4A1A63FB68DB6B00225A6307F10803F3
:104B3400FB65FB68D86BFB681B6804331946FB6D87
:104B44001A68FB88FDF7A8F800233B61FB681B6823
:104B54001B683B61FB681B685B683B613B69FB68E6
:104B64001B69002B19D0FB681B680C333B643B6C3E
:104B740053E8003FFB63FB6B43F48073BB65FB6846
:104B84001B680C33BA6DFA64BB64B96CFA6C41E807
:104B940000237B647B6C002BE5D1FB681B6814331A
:104BA400FB62FB6A53E8003FBB62BB6A43F001034C
:104BB4007B65FB681B6814337A6DBA637B63796B1E
:104BC400BA6B41E800233B633B6B002BE5D1FB68E8
:104BD4001B681433BB61BB6953E8003F7B617B698D
:104BE40043F040033B65FB681B6814333A6D7A62FB
:104BF4003B62396A7A6A41E80023FB61FB69002B56
:104C0400E5D1002318466037BD4680BDED48000855
:104C1400194A0008554A000880B489B000AF78608A
:104C24007B681B680C33FB60FB6853E8003FBB6088
:104C3400BB6823F0C003FB617B681B680C33FA6913
:104C4400BA617B617969BA6941E800233B613B69D8
:104C5400002BE5D17B68202283F8412000BF243754
:104C6400BD4680BC704780B495B000AF78607B6867
:104C74001B680C337B637B6B53E8003F3B633B6BEC
:104C840023F49073FB647B681B680C33FA6C3A64FE
:104C9400FB63F96B3A6C41E80023BB63BB6B002BED
:104CA400E5D17B681B6814333B623B6A53E8003FE1
:104CB400FB61FB6923F00103BB647B681B6814334D
:104CC400BA6CFA62BB62B96AFA6A41E800237B6291
:104CD4007B6A002BE5D17B681B6B012B19D17B68A8
:104CE4001B680C33FB60FB6853E8003FBB60BB6888
:104CF40023F010037B647B681B680C337A6CBA6105
:104D04007B617969BA6941E800233B613B69002B07
:104D1400E5D17B68202283F842207B6800221A6355
:104D240000BF5437BD4680BC704780B584B000AF27
:104D340078607B685B6AFB60FB680022DA85FB684D
:104D44000022DA84F868FFF760FD00BF1037BD4623
:104D540080BD80B485B000AF78607B6893F8413043
:104D6400DBB2212B3ED17B689B68B3F5805F14D105
:104D74007B681B69002B10D17B681B6AFB60FB6896
:104D84001B881A467B681B68C2F308025A607B685A
:104D94001B6A9A1C7B681A6208E07B681B6A591CB0
:104DA4007A6811621A787B681B685A607B68DB8CAE
:104DB4009BB2013B9BB27A681946D184002B0FD178
:104DC4007B681B68DA687B681B6822F08002DA6003
:104DD4007B681B68DA687B681B6842F04002DA6013
:104DE400002300E0022318461437BD4680BC7047F8
:104DF40080B582B000AF78607B681B68DA687B6836
:104E04001B6822F04002DA607B68202283F841208C
:104E14007868FFF7DFFC002318460837BD4680BDDD
:104E240080B58CB000AF78607B6893F84230DBB219
:104E3400222B40F0AE807B689B68B3F5805F17D16E
:104E44007B681B69002B13D10023FB627B689B6A80
:104E5400BB627B681B685B689BB2C3F308039AB2AE
:104E6400BB6A1A807B689B6A9A1C7B689A6226E0FC
:104E74007B689B6AFB620023BB627B689B68B3F51B
:104E8400805F07D07B689B68002B0AD17B681B6915
:104E9400002B06D17B681B685B68DAB2FB6A1A7068
:104EA40008E07B681B685B68DBB203F07F03DAB25F
:104EB400FB6A1A707B689B6A5A1C7B689A627B68DF
:104EC400DB8D9BB2013B9BB27A681946D185002BDE
:104ED4005DD17B681B68DA687B681B6822F020025E
:104EE400DA607B681B68DA687B681B6822F480726E
:104EF400DA607B681B685A697B681B6822F00102D0
:104F04005A617B68202283F842207B6800225A631E
:104F14007B681B6B012B35D17B6800221A637B688D
:104F24001B680C337B617B6953E8003F3B613B6941
:104F340023F010037B627B681B680C337A6A3A6245
:104F4400FB61F9693A6A41E80023BB61BB69002B44
:104F5400E5D17B681B681B6803F01003102B0AD192
:104F64000023FB607B681B681B68FB607B681B6815
:104F74005B68FB60FB687B689B8D19467868FFF76C
:104F84004DFC02E07868FCF729F8002302E00023D6
:104F940000E0022318463037BD4680BD80B584B09A
:104FA40000AF78607B681B681B6923F440517B6801
:104FB400DA687B681B680A431A617B689A687B68B5
:104FC4001B691A437B685B691343BB607B681B687E
:104FD400DB6823F4B05323F00C037A681268B968D1
:104FE4000B43D3607B681B685B6923F440717B6867
:104FF4009A697B681B680A435A617B681B682C4A60
:10500400934203D1FEF728F8F86002E0FEF710F8A7
:10501400F860FA6813469B0013449A001A447B68AC
:105024005B689B00B2FBF3F3224AA2FB03235B09F8
:105034001901FA6813469B0013449A001A447B68CA
:105044005B689B00B2FBF3F21A4BA3FB02035B0900
:10505400642000FB03F3D31A1B013233154AA2FB6D
:1050640003235B0903F0F0031944FA6813469B0019
:1050740013449A001A447B685B689B00B2FBF3F20A
:105084000C4BA3FB02035B09642000FB03F3D31A5C
:105094001B013233074AA2FB03235B0903F00F020F
:1050A4007B681B680A449A6000BF1037BD4680BD08
:1050B400003801401F85EB5180B584B000AFF86023
:1050C400B9607A603B60FB680022A3F84420FB6867
:1050D4004FF000029A64FB684FF00002DA64FB6848
:1050E4004FF000021A65FB684FF000025A65FB6836
:1050F400583328220021184601F0D3FCFB68803382
:1051040028220021184601F0CCFCFB680022C3F8D9
:10511400A820FB68294AC3F8AC20FB684FF07C52F6
:10512400C3F8B020FB68264AC3F8B420FB684FF0EC
:105134000002C3F8B820FB68BA681A60FB687A6892
:105144005A60FB683A689A60FB68BA69DA60FB687F
:10515400FA691A61FB683A6A5A61FB68BA8C1A8365
:10516400FB68BA6ADA61FB68BA8D1A84FB683A6B29
:105174005A62FB68BA8E1A85FB68BA6BDA62FB68FE
:10518400BA8F1A86FB683A6C5A63FB68B7F84420F6
:105194001A87FB68BA6CDA63FB68B7F84C20A3F88B
:1051A4004020FB68002283F84320FB68002283F838
:1051B4004220FB6818461037BD4680BDCDCCCC3E9E
:1051C4000000FA4480B582B000AF78607B689B68C9
:1051D400002B05D17B681B681B6800225A6318E00A
:1051E4007B689B68042B05D17B681B681B680022C5
:1051F4009A630EE07B689B68082B05D17B681B686B
:105204001B680022DA6304E07B681B681B680022C9
:105214001A647B68DB68002B05D17B681B681B68FC
:1052240000225A6318E07B68DB68042B05D17B6895
:105234001B681B6800229A630EE07B68DB68082BFE
:1052440005D17B681B681B680022DA6304E07B6875
:105254001B681B6800221A647B681B69002B05D13C
:105264007B681B681B6800225A6318E07B681B6913
:10527400042B05D17B681B681B6800229A630EE02F
:105284007B681B69082B05D17B681B681B6800229F
:10529400DA6304E07B681B681B6800221A647B687D
:1052A40058697B681B8B01221946FDF7AEFA7B68AF
:1052B400D8697B681B8C01221946FDF7A6FA7B6826
:1052C400586A7B681B8D01221946FDF79EFA00BFC0
:1052D4000837BD4680BD80B584B000AF78607B6878
:1052E400DA6A7B681B8E19461046FDF777FA034687
:1052F400002B0CBF01230023DBB2FB737B685A6BCA
:105304007B681B8F19461046FDF768FA0346002B8D
:105314000CBF01230023DBB2BB737B68DA6B7B68B1
:10532400B3F8403019461046FDF758FA0346002BEF
:105334000CBF01230023DBB27B7397F90F309B0072
:105344005AB297F90E305B005BB213435AB297F925
:105354000D3013435BB2DAB27B6883F842207B687A
:10536400B3F8443001339AB27B68A3F8442000BFF9
:105374001037BD4680BD000080B58AB000AF7860AC
:1053840039607B68B3F844301846FBF703F80346EA
:105394004D491846FBF706F9034639681846FBF7EA
:1053A40001F90346BB61BB6919461846FAF73EFF8B
:1053B400034646491846FBF741F803467B614449D6
:1053C400B869FBF73BF803463B6142497869FBF750
:1053D40035F80346FB607B680022A3F844207B6811
:1053E400D3F8A8207B681632396943F822107B6809
:1053F400D3F8A8207B682032F96843F822107B6830
:10540400D3F8A830591C344B83FB01239A10CB17D3
:10541400D21A13469B0013445B00CA1A7B68C3F874
:10542400A8204FF000037B624FF000033B6200238F
:10543400FB6118E07B68FA69163253F8223019468A
:10544400786AFAF7F3FE03467B627B68FA692032D6
:1054540053F822301946386AFAF7E8FE03463B62ED
:10546400FB690133FB61FB69092BE3DD1B49786AA6
:10547400FBF798F803461A467B681A651749386A99
:10548400FBF790F803461A467B685A657B681B6DE8
:105494000F491846FBF786F803461A467B689A6458
:1054A4007B689B6C19461846FAF7C0FE0346074909
:1054B4001846FAF7C3FF03461A467B68DA6400BF4E
:1054C4002837BD4680BD00BF0000B442DB0F494011
:1054D400000070427B14AE3D6766666600002041A2
:1054E40080B483B000AF78600B46FB707B68FA78B9
:1054F40083F8BC2000BF0C37BD4680BC704790B514
:105504008BB000AFF860B9607A603B60B868FAF7B6
:1055140041FF0246FB681B6D19461046FAF784FEEC
:105524000346FB61FB68D3F8AC301946F869FAF717
:1055340085FF0346BB61FB68D3F8B8407968F86916
:10554400FAF77CFF034619462046FAF76FFE034636
:105554007B62FB68D3F8B4301946786AFBF72AF902
:105564000346002B03D0FB68D3F8B4307B62FB689E
:10557400D3F8B43083F000431946786AFBF7FCF89B
:105584000346002B05D0FB68D3F8B43083F0004306
:105594007B62FB68D3F8B0301946786AFAF74EFF9D
:1055A40003467B617969B869FAF740FE03461846F9
:1055B400FBF70AF903463B623B6A002B01DA00233E
:1055C4003B623A6A3B689A4202DD3B683B6203E015
:1055D400FB687A6AC3F8B820BB68002B04D1FB6867
:1055E4004FF00002C3F8B8203B6A18462C37BD467A
:1055F40090BD000080B582B000AF78600B467B8020
:105604007B6893F8433083F00103DBB2002B00F096
:1056140083807B689B68002B05D17B681B681B68B3
:1056240000225A6318E07B689B68042B05D17B68D1
:105634001B681B6800229A630EE07B689B68082B3A
:1056440005D17B681B681B680022DA6304E07B6871
:105654001B681B6800221A647B68DB68002B05D179
:105664007B681B681B6800225A6318E07B68DB6850
:10567400042B05D17B681B681B6800229A630EE02B
:105684007B68DB68082B05D17B681B681B680022DC
:10569400DA6304E07B681B681B6800221A647B6879
:1056A4001B69002B05D17B681B681B6800225A63A9
:1056B40018E07B681B69042B05D17B681B681B6899
:1056C40000229A630EE07B681B69082B05D17B6876
:1056D4001B681B680022DA6304E07B681B681B6894
:1056E40000221A647B6858697B681B8B0122194667
:1056F400FDF78BF87B68D8697B681B8C01221946FF
:10570400FDF783F87B68586A7B681B8D0122194674
:10571400FDF77BF800F055BF7B6893F8BC30002B95
:1057240000F0A983012B40F04C877B6893F842304A
:10573400013B052B00F21C8301A252F823F000BFA9
:105744005D5700086D5B0008715C0008655900082E
:1057540061580008695A00087B689B68002B05D1D2
:105764007B681B681B687A885A6318E07B689B68AF
:10577400042B05D17B681B681B687A889A630EE04A
:105784007B689B68082B05D17B681B681B687A883B
:10579400DA6304E07B681B681B687A881A647B6898
:1057A400DB68002B05D17B681B681B6800225A63E9
:1057B40018E07B68DB68042B05D17B681B681B68D9
:1057C40000229A630EE07B68DB68082B05D17B68B6
:1057D4001B681B680022DA6304E07B681B681B6893
:1057E40000221A647B681B69002B05D17B681B6847
:1057F4001B6800225A6318E07B681B69042B05D1DF
:105804007B681B681B6800229A630EE07B681B6937
:10581400082B05D17B681B681B680022DA6304E04F
:105824007B681B681B6800221A647B6858697B6864
:105834001B8B01221946FCF7E8FF7B68D8697B685B
:105844001B8C01221946FCF7E0FF7B68586A7B68D1
:105854001B8D00221946FCF7D8FF0BE37B689B687D
:10586400002B05D17B681B681B687A885A6318E093
:105874007B689B68042B05D17B681B681B687A884E
:105884009A630EE07B689B68082B05D17B681B68D4
:105894001B687A88DA6304E07B681B681B687A8873
:1058A4001A647B68DB68002B05D17B681B681B6866
:1058B40000225A6318E07B68DB68042B05D17B68FF
:1058C4001B681B6800229A630EE07B68DB68082B68
:1058D40005D17B681B681B680022DA6304E07B68DF
:1058E4001B681B6800221A647B681B69002B05D1A6
:1058F4007B681B681B6800225A6318E07B681B697D
:10590400042B05D17B681B681B6800229A630EE098
:105914007B681B69082B05D17B681B681B68002208
:10592400DA6304E07B681B681B6800221A647B68E6
:1059340058697B681B8B01221946FCF766FF7B685C
:10594400D8697B681B8C00221946FCF75EFF7B68D4
:10595400586A7B681B8D01221946FCF756FF89E2C1
:105964007B689B68002B05D17B681B681B68002241
:105974005A6318E07B689B68042B05D17B681B681D
:105984001B6800229A630EE07B689B68082B05D194
:105994007B681B681B680022DA6304E07B681B6871
:1059A4001B6800221A647B68DB68002B05D17B68C6
:1059B4001B681B6800225A6318E07B68DB68042BB1
:1059C40005D17B681B681B6800229A630EE07B6824
:1059D400DB68082B05D17B681B681B680022DA632F
:1059E40004E07B681B681B6800221A647B681B69DF
:1059F400002B05D17B681B681B687A885A6318E002
:105A04007B681B69042B05D17B681B681B687A883B
:105A14009A630EE07B681B69082B05D17B681B68C1
:105A24001B687A88DA6304E07B681B681B687A88E1
:105A34001A647B6858697B681B8B01221946FCF742
:105A4400E4FE7B68D8697B681B8C00221946FCF74E
:105A5400DCFE7B68586A7B681B8D01221946FCF7C3
:105A6400D4FE07E27B689B68002B05D17B681B682A
:105A74001B6800225A6318E07B689B68042B05D1DD
:105A84007B681B681B6800229A630EE07B689B6836
:105A9400082B05D17B681B681B680022DA6304E0CD
:105AA4007B681B681B6800221A647B68DB68002B18
:105AB40005D17B681B681B6800225A6318E07B6869
:105AC400DB68042B05D17B681B681B6800229A6382
